{
  "_format": "hh-sol-artifact-1",
  "contractName": "Pool",
  "sourceName": "contracts/Pool.sol",
  "abi": [
    {
      "inputs": [
        {
          "internalType": "uint256",
          "name": "_scale",
          "type": "uint256"
        },
        {
          "internalType": "uint256",
          "name": "_max",
          "type": "uint256"
        },
        {
          "internalType": "address",
          "name": "_stakingContract",
          "type": "address"
        },
        {
          "internalType": "address",
          "name": "_stakingToken",
          "type": "address"
        }
      ],
      "stateMutability": "nonpayable",
      "type": "constructor"
    },
    {
      "anonymous": false,
      "inputs": [
        {
          "indexed": false,
          "internalType": "address[]",
          "name": "tokens",
          "type": "address[]"
        },
        {
          "indexed": false,
          "internalType": "address",
          "name": "dest",
          "type": "address"
        }
      ],
      "name": "DrainTo",
      "type": "event"
    },
    {
      "anonymous": false,
      "inputs": [
        {
          "indexed": true,
          "internalType": "address",
          "name": "previousOwner",
          "type": "address"
        },
        {
          "indexed": true,
          "internalType": "address",
          "name": "newOwner",
          "type": "address"
        }
      ],
      "name": "OwnershipTransferred",
      "type": "event"
    },
    {
      "anonymous": false,
      "inputs": [
        {
          "indexed": false,
          "internalType": "uint256",
          "name": "max",
          "type": "uint256"
        }
      ],
      "name": "SetMax",
      "type": "event"
    },
    {
      "anonymous": false,
      "inputs": [
        {
          "indexed": false,
          "internalType": "uint256",
          "name": "scale",
          "type": "uint256"
        }
      ],
      "name": "SetScale",
      "type": "event"
    },
    {
      "anonymous": false,
      "inputs": [
        {
          "indexed": true,
          "internalType": "uint256",
          "name": "nonce",
          "type": "uint256"
        },
        {
          "indexed": true,
          "internalType": "uint256",
          "name": "expiry",
          "type": "uint256"
        },
        {
          "indexed": true,
          "internalType": "address",
          "name": "account",
          "type": "address"
        },
        {
          "indexed": false,
          "internalType": "address",
          "name": "token",
          "type": "address"
        },
        {
          "indexed": false,
          "internalType": "uint256",
          "name": "amount",
          "type": "uint256"
        },
        {
          "indexed": false,
          "internalType": "uint256",
          "name": "score",
          "type": "uint256"
        }
      ],
      "name": "Withdraw",
      "type": "event"
    },
    {
      "inputs": [],
      "name": "CLAIM_TYPEHASH",
      "outputs": [
        {
          "internalType": "bytes32",
          "name": "",
          "type": "bytes32"
        }
      ],
      "stateMutability": "view",
      "type": "function"
    },
    {
      "inputs": [],
      "name": "DOMAIN_CHAIN_ID",
      "outputs": [
        {
          "internalType": "uint256",
          "name": "",
          "type": "uint256"
        }
      ],
      "stateMutability": "view",
      "type": "function"
    },
    {
      "inputs": [],
      "name": "DOMAIN_NAME",
      "outputs": [
        {
          "internalType": "bytes32",
          "name": "",
          "type": "bytes32"
        }
      ],
      "stateMutability": "view",
      "type": "function"
    },
    {
      "inputs": [],
      "name": "DOMAIN_SEPARATOR",
      "outputs": [
        {
          "internalType": "bytes32",
          "name": "",
          "type": "bytes32"
        }
      ],
      "stateMutability": "view",
      "type": "function"
    },
    {
      "inputs": [],
      "name": "DOMAIN_TYPEHASH",
      "outputs": [
        {
          "internalType": "bytes32",
          "name": "",
          "type": "bytes32"
        }
      ],
      "stateMutability": "view",
      "type": "function"
    },
    {
      "inputs": [],
      "name": "DOMAIN_VERSION",
      "outputs": [
        {
          "internalType": "bytes32",
          "name": "",
          "type": "bytes32"
        }
      ],
      "stateMutability": "view",
      "type": "function"
    },
    {
      "inputs": [
        {
          "internalType": "address",
          "name": "_admin",
          "type": "address"
        }
      ],
      "name": "addAdmin",
      "outputs": [],
      "stateMutability": "nonpayable",
      "type": "function"
    },
    {
      "inputs": [
        {
          "internalType": "address",
          "name": "",
          "type": "address"
        }
      ],
      "name": "admins",
      "outputs": [
        {
          "internalType": "bool",
          "name": "",
          "type": "bool"
        }
      ],
      "stateMutability": "view",
      "type": "function"
    },
    {
      "inputs": [
        {
          "internalType": "uint256",
          "name": "score",
          "type": "uint256"
        },
        {
          "internalType": "address",
          "name": "token",
          "type": "address"
        }
      ],
      "name": "calculate",
      "outputs": [
        {
          "internalType": "uint256",
          "name": "amount",
          "type": "uint256"
        }
      ],
      "stateMutability": "view",
      "type": "function"
    },
    {
      "inputs": [
        {
          "internalType": "address[]",
          "name": "tokens",
          "type": "address[]"
        },
        {
          "internalType": "address",
          "name": "dest",
          "type": "address"
        }
      ],
      "name": "drainTo",
      "outputs": [],
      "stateMutability": "nonpayable",
      "type": "function"
    },
    {
      "inputs": [],
      "name": "getChainId",
      "outputs": [
        {
          "internalType": "uint256",
          "name": "id",
          "type": "uint256"
        }
      ],
      "stateMutability": "view",
      "type": "function"
    },
    {
      "inputs": [],
      "name": "max",
      "outputs": [
        {
          "internalType": "uint256",
          "name": "",
          "type": "uint256"
        }
      ],
      "stateMutability": "view",
      "type": "function"
    },
    {
      "inputs": [
        {
          "internalType": "address",
          "name": "participant",
          "type": "address"
        },
        {
          "internalType": "uint256",
          "name": "nonce",
          "type": "uint256"
        }
      ],
      "name": "nonceUsed",
      "outputs": [
        {
          "internalType": "bool",
          "name": "",
          "type": "bool"
        }
      ],
      "stateMutability": "view",
      "type": "function"
    },
    {
      "inputs": [],
      "name": "owner",
      "outputs": [
        {
          "internalType": "address",
          "name": "",
          "type": "address"
        }
      ],
      "stateMutability": "view",
      "type": "function"
    },
    {
      "inputs": [
        {
          "internalType": "address",
          "name": "_admin",
          "type": "address"
        }
      ],
      "name": "removeAdmin",
      "outputs": [],
      "stateMutability": "nonpayable",
      "type": "function"
    },
    {
      "inputs": [],
      "name": "renounceOwnership",
      "outputs": [],
      "stateMutability": "nonpayable",
      "type": "function"
    },
    {
      "inputs": [],
      "name": "scale",
      "outputs": [
        {
          "internalType": "uint256",
          "name": "",
          "type": "uint256"
        }
      ],
      "stateMutability": "view",
      "type": "function"
    },
    {
      "inputs": [
        {
          "internalType": "uint256",
          "name": "_max",
          "type": "uint256"
        }
      ],
      "name": "setMax",
      "outputs": [],
      "stateMutability": "nonpayable",
      "type": "function"
    },
    {
      "inputs": [
        {
          "internalType": "uint256",
          "name": "_scale",
          "type": "uint256"
        }
      ],
      "name": "setScale",
      "outputs": [],
      "stateMutability": "nonpayable",
      "type": "function"
    },
    {
      "inputs": [
        {
          "internalType": "address",
          "name": "_stakingContract",
          "type": "address"
        }
      ],
      "name": "setStakingContract",
      "outputs": [],
      "stateMutability": "nonpayable",
      "type": "function"
    },
    {
      "inputs": [
        {
          "internalType": "address",
          "name": "_stakingToken",
          "type": "address"
        }
      ],
      "name": "setStakingToken",
      "outputs": [],
      "stateMutability": "nonpayable",
      "type": "function"
    },
    {
      "inputs": [],
      "name": "stakingContract",
      "outputs": [
        {
          "internalType": "address",
          "name": "",
          "type": "address"
        }
      ],
      "stateMutability": "view",
      "type": "function"
    },
    {
      "inputs": [],
      "name": "stakingToken",
      "outputs": [
        {
          "internalType": "address",
          "name": "",
          "type": "address"
        }
      ],
      "stateMutability": "view",
      "type": "function"
    },
    {
      "inputs": [
        {
          "internalType": "address",
          "name": "newOwner",
          "type": "address"
        }
      ],
      "name": "transferOwnership",
      "outputs": [],
      "stateMutability": "nonpayable",
      "type": "function"
    },
    {
      "inputs": [
        {
          "internalType": "uint256",
          "name": "nonce",
          "type": "uint256"
        },
        {
          "internalType": "uint256",
          "name": "expiry",
          "type": "uint256"
        },
        {
          "internalType": "address",
          "name": "participant",
          "type": "address"
        },
        {
          "internalType": "uint256",
          "name": "score",
          "type": "uint256"
        },
        {
          "internalType": "uint8",
          "name": "v",
          "type": "uint8"
        },
        {
          "internalType": "bytes32",
          "name": "r",
          "type": "bytes32"
        },
        {
          "internalType": "bytes32",
          "name": "s",
          "type": "bytes32"
        }
      ],
      "name": "verify",
      "outputs": [
        {
          "internalType": "bool",
          "name": "valid",
          "type": "bool"
        }
      ],
      "stateMutability": "view",
      "type": "function"
    },
    {
      "inputs": [
        {
          "internalType": "address",
          "name": "token",
          "type": "address"
        },
        {
          "internalType": "uint256",
          "name": "nonce",
          "type": "uint256"
        },
        {
          "internalType": "uint256",
          "name": "expiry",
          "type": "uint256"
        },
        {
          "internalType": "uint256",
          "name": "score",
          "type": "uint256"
        },
        {
          "internalType": "uint8",
          "name": "v",
          "type": "uint8"
        },
        {
          "internalType": "bytes32",
          "name": "r",
          "type": "bytes32"
        },
        {
          "internalType": "bytes32",
          "name": "s",
          "type": "bytes32"
        }
      ],
      "name": "withdraw",
      "outputs": [],
      "stateMutability": "nonpayable",
      "type": "function"
    },
    {
      "inputs": [
        {
          "internalType": "uint256",
          "name": "minimumAmount",
          "type": "uint256"
        },
        {
          "internalType": "address",
          "name": "token",
          "type": "address"
        },
        {
          "internalType": "uint256",
          "name": "nonce",
          "type": "uint256"
        },
        {
          "internalType": "uint256",
          "name": "expiry",
          "type": "uint256"
        },
        {
          "internalType": "uint256",
          "name": "score",
          "type": "uint256"
        },
        {
          "internalType": "uint8",
          "name": "v",
          "type": "uint8"
        },
        {
          "internalType": "bytes32",
          "name": "r",
          "type": "bytes32"
        },
        {
          "internalType": "bytes32",
          "name": "s",
          "type": "bytes32"
        }
      ],
      "name": "withdrawAndStake",
      "outputs": [],
      "stateMutability": "nonpayable",
      "type": "function"
    },
    {
      "inputs": [
        {
          "internalType": "uint256",
          "name": "minimumAmount",
          "type": "uint256"
        },
        {
          "internalType": "address",
          "name": "token",
          "type": "address"
        },
        {
          "internalType": "address",
          "name": "account",
          "type": "address"
        },
        {
          "internalType": "uint256",
          "name": "nonce",
          "type": "uint256"
        },
        {
          "internalType": "uint256",
          "name": "expiry",
          "type": "uint256"
        },
        {
          "internalType": "uint256",
          "name": "score",
          "type": "uint256"
        },
        {
          "internalType": "uint8",
          "name": "v",
          "type": "uint8"
        },
        {
          "internalType": "bytes32",
          "name": "r",
          "type": "bytes32"
        },
        {
          "internalType": "bytes32",
          "name": "s",
          "type": "bytes32"
        }
      ],
      "name": "withdrawAndStakeFor",
      "outputs": [],
      "stateMutability": "nonpayable",
      "type": "function"
    },
    {
      "inputs": [
        {
          "internalType": "uint256",
          "name": "minimumAmount",
          "type": "uint256"
        },
        {
          "internalType": "address",
          "name": "recipient",
          "type": "address"
        },
        {
          "internalType": "address",
          "name": "token",
          "type": "address"
        },
        {
          "internalType": "uint256",
          "name": "nonce",
          "type": "uint256"
        },
        {
          "internalType": "uint256",
          "name": "expiry",
          "type": "uint256"
        },
        {
          "internalType": "address",
          "name": "participant",
          "type": "address"
        },
        {
          "internalType": "uint256",
          "name": "score",
          "type": "uint256"
        },
        {
          "internalType": "uint8",
          "name": "v",
          "type": "uint8"
        },
        {
          "internalType": "bytes32",
          "name": "r",
          "type": "bytes32"
        },
        {
          "internalType": "bytes32",
          "name": "s",
          "type": "bytes32"
        }
      ],
      "name": "withdrawProtected",
      "outputs": [
        {
          "internalType": "uint256",
          "name": "",
          "type": "uint256"
        }
      ],
      "stateMutability": "nonpayable",
      "type": "function"
    },
    {
      "inputs": [
        {
          "internalType": "uint256",
          "name": "minimumAmount",
          "type": "uint256"
        },
        {
          "internalType": "address",
          "name": "token",
          "type": "address"
        },
        {
          "internalType": "address",
          "name": "recipient",
          "type": "address"
        },
        {
          "internalType": "uint256",
          "name": "nonce",
          "type": "uint256"
        },
        {
          "internalType": "uint256",
          "name": "expiry",
          "type": "uint256"
        },
        {
          "internalType": "uint256",
          "name": "score",
          "type": "uint256"
        },
        {
          "internalType": "uint8",
          "name": "v",
          "type": "uint8"
        },
        {
          "internalType": "bytes32",
          "name": "r",
          "type": "bytes32"
        },
        {
          "internalType": "bytes32",
          "name": "s",
          "type": "bytes32"
        }
      ],
      "name": "withdrawWithRecipient",
      "outputs": [],
      "stateMutability": "nonpayable",
      "type": "function"
    }
  ],
  "bytecode": "0x60c06040523480156200001157600080fd5b506040516200372238038062003722833981016040819052620000349162000700565b6200003f336200028c565b6064831115620000855760405162461bcd60e51b815260206004820152600c60248201526b09a82b0bea89e9ebe90928e960a31b60448201526064015b60405180910390fd5b604d841115620000c95760405162461bcd60e51b815260206004820152600e60248201526d0a68682988abea89e9ebe90928e960931b60448201526064016200007c565b60018481556002849055600580546001600160a01b038086166001600160a01b0319928316179092556006805492851692909116919091179055336000908152600360205260408120805460ff1916909217909155620001264690565b60808190526040516c08a92a06e626488dedac2d2dc5609b1b60208201526b1cdd1c9a5b99c81b985b594b60a21b602d8201526e1cdd1c9a5b99c81d995c9cda5bdb8b608a1b60398201526f1d5a5b9d0c8d4d8818da185a5b92590b60821b60488201527f6164647265737320766572696679696e67436f6e7472616374000000000000006058820152602960f81b607182015290915060720160408051601f198184030181528282528051602091820120908301527f5d5c2d2522b7f6ec8d1c86f44956b9ecd4376b1842cd263d54a5368aa149486d908201527fc89efdaa54c0f20c7adf612882df0950f5a951637e0307cdcb4c672f298b8bc66060820152608081018290523060a082015260c00160408051601f19818403018152919052805160209182012060a05260055460065462000281926001600160a01b039182169291909116906000199062001bc6620002dc821b17901c565b5050505050620007d1565b600080546001600160a01b038381166001600160a01b0319831681178455604051919092169283917f8be0079c531659141344cd1fd0a4f28419497f9722a3daafe3b4186f6b6457e09190a35050565b8015806200036a5750604051636eb1769f60e11b81523060048201526001600160a01b03838116602483015284169063dd62ed3e9060440160206040518083038186803b1580156200032d57600080fd5b505afa15801562000342573d6000803e3d6000fd5b505050506040513d601f19601f82011682018060405250810190620003689190620006e6565b155b620003de5760405162461bcd60e51b815260206004820152603660248201527f5361666545524332303a20617070726f76652066726f6d206e6f6e2d7a65726f60448201527f20746f206e6f6e2d7a65726f20616c6c6f77616e63650000000000000000000060648201526084016200007c565b604080516001600160a01b038416602482015260448082018490528251808303909101815260649091019091526020810180516001600160e01b0390811663095ea7b360e01b17909152620004369185916200043b16565b505050565b600062000497826040518060400160405280602081526020017f5361666545524332303a206c6f772d6c6576656c2063616c6c206661696c6564815250856001600160a01b03166200051960201b62001dda179092919060201c565b805190915015620004365780806020019051810190620004b89190620006c2565b620004365760405162461bcd60e51b815260206004820152602a60248201527f5361666545524332303a204552433230206f7065726174696f6e20646964206e6044820152691bdd081cdd58d8d9595960b21b60648201526084016200007c565b60606200052a848460008562000534565b90505b9392505050565b606082471015620005975760405162461bcd60e51b815260206004820152602660248201527f416464726573733a20696e73756666696369656e742062616c616e636520666f6044820152651c8818d85b1b60d21b60648201526084016200007c565b843b620005e75760405162461bcd60e51b815260206004820152601d60248201527f416464726573733a2063616c6c20746f206e6f6e2d636f6e747261637400000060448201526064016200007c565b600080866001600160a01b031685876040516200060591906200074b565b60006040518083038185875af1925050503d806000811462000644576040519150601f19603f3d011682016040523d82523d6000602084013e62000649565b606091505b5090925090506200065c82828662000667565b979650505050505050565b60608315620006785750816200052d565b825115620006895782518084602001fd5b8160405162461bcd60e51b81526004016200007c919062000769565b80516001600160a01b0381168114620006bd57600080fd5b919050565b600060208284031215620006d557600080fd5b815180151581146200052d57600080fd5b600060208284031215620006f957600080fd5b5051919050565b600080600080608085870312156200071757600080fd5b84519350602085015192506200073060408601620006a5565b91506200074060608601620006a5565b905092959194509250565b600082516200075f8184602087016200079e565b9190910192915050565b60208152600082518060208401526200078a8160408501602087016200079e565b601f01601f19169190910160400192915050565b60005b83811015620007bb578181015183820152602001620007a1565b83811115620007cb576000848401525b50505050565b60805160a051612f0f620008136000396000818161028901528181610ca601526120d10152600081816102c301528181610a400152611e6b0152612f0f6000f3fe608060405234801561001057600080fd5b50600436106101da5760003560e01c806370480275116101045780639dd373b9116100a2578063db1f0c7611610071578063db1f0c7614610457578063ee99205c1461046a578063f2fde38b1461048a578063f51e181a1461049d57600080fd5b80639dd373b9146103f7578063acb8cc491461040a578063b09013a214610431578063d73000e91461044457600080fd5b806372f702f3116100de57806372f702f31461035a578063796f077b1461039f5780637e747bea146103c65780638da5cb5b146103d957600080fd5b8063704802751461032c578063715018a61461033f578063716042d91461034757600080fd5b80633408e4701161017c578063429b62e51161014b578063429b62e5146102e55780635a1d249d146103085780636ac5db191461031b5780636b0509b11461032457600080fd5b80633408e4701461027e5780633644e515146102845780633edc3519146102ab578063416f281d146102be57600080fd5b80631fe9eabc116101b85780631fe9eabc1461022f57806320606b70146102425780632e0f5429146102585780632f56af001461026b57600080fd5b80631647795e146101df5780631785f53c146102075780631e9b12ef1461021c575b600080fd5b6101f26101ed366004612807565b6104a6565b60405190151581526020015b60405180910390f35b61021a6102153660046127ec565b61050b565b005b61021a61022a3660046127ec565b610671565b61021a61023d36600461293a565b61080f565b61024a610937565b6040519081526020016101fe565b6101f2610266366004612b13565b610a3b565b61021a610279366004612a28565b610e10565b4661024a565b61024a7f000000000000000000000000000000000000000000000000000000000000000081565b61021a6102b936600461293a565b610e2e565b61024a7f000000000000000000000000000000000000000000000000000000000000000081565b6101f26102f33660046127ec565b60036020526000908152604090205460ff1681565b61024a61031636600461296c565b610f4f565b61024a60025481565b61024a61104a565b61021a61033a3660046127ec565b611139565b61021a611286565b61021a610355366004612831565b611313565b60065461037a9073ffffffffffffffffffffffffffffffffffffffff1681565b60405173ffffffffffffffffffffffffffffffffffffffff90911681526020016101fe565b61024a7f5d5c2d2522b7f6ec8d1c86f44956b9ecd4376b1842cd263d54a5368aa149486d81565b61021a6103d4366004612aa6565b611330565b60005473ffffffffffffffffffffffffffffffffffffffff1661037a565b61021a6104053660046127ec565b6114c3565b61024a7fc89efdaa54c0f20c7adf612882df0950f5a951637e0307cdcb4c672f298b8bc681565b61021a61043f366004612894565b61165f565b61021a610452366004612a28565b611852565b61024a610465366004612998565b6119e9565b60055461037a9073ffffffffffffffffffffffffffffffffffffffff1681565b61021a6104983660046127ec565b611a99565b61024a60015481565b6000806104b561010084612c57565b905060006104c561010085612e38565b73ffffffffffffffffffffffffffffffffffffffff8616600090815260046020908152604080832095835294905292909220546001921c82169091149150505b92915050565b60005473ffffffffffffffffffffffffffffffffffffffff163314610591576040517f08c379a000000000000000000000000000000000000000000000000000000000815260206004820181905260248201527f4f776e61626c653a2063616c6c6572206973206e6f7420746865206f776e657260448201526064015b60405180910390fd5b73ffffffffffffffffffffffffffffffffffffffff811660009081526003602052604090205460ff161515600114610625576040517f08c379a000000000000000000000000000000000000000000000000000000000815260206004820152600d60248201527f41444d494e5f4e4f545f534554000000000000000000000000000000000000006044820152606401610588565b73ffffffffffffffffffffffffffffffffffffffff16600090815260036020526040902080547fffffffffffffffffffffffffffffffffffffffffffffffffffffffffffffff00169055565b60005473ffffffffffffffffffffffffffffffffffffffff1633146106f2576040517f08c379a000000000000000000000000000000000000000000000000000000000815260206004820181905260248201527f4f776e61626c653a2063616c6c6572206973206e6f7420746865206f776e65726044820152606401610588565b73ffffffffffffffffffffffffffffffffffffffff811661076f576040517f08c379a000000000000000000000000000000000000000000000000000000000815260206004820152600f60248201527f494e56414c49445f4144445245535300000000000000000000000000000000006044820152606401610588565b60055460065461079a9173ffffffffffffffffffffffffffffffffffffffff91821691166000611bc6565b600680547fffffffffffffffffffffffff00000000000000000000000000000000000000001673ffffffffffffffffffffffffffffffffffffffff83811691821790925560055461080c92167fffffffffffffffffffffffffffffffffffffffffffffffffffffffffffffffff611bc6565b50565b60005473ffffffffffffffffffffffffffffffffffffffff163314610890576040517f08c379a000000000000000000000000000000000000000000000000000000000815260206004820181905260248201527f4f776e61626c653a2063616c6c6572206973206e6f7420746865206f776e65726044820152606401610588565b60648111156108fb576040517f08c379a000000000000000000000000000000000000000000000000000000000815260206004820152600c60248201527f4d41585f544f4f5f4849474800000000000000000000000000000000000000006044820152606401610588565b60028190556040518181527fc2c862cda8964d16d060904e01f55bf7e4ea5e59759ca1c20db551079e0d5eed906020015b60405180910390a150565b6040517f454950373132446f6d61696e280000000000000000000000000000000000000060208201527f737472696e67206e616d652c0000000000000000000000000000000000000000602d8201527f737472696e672076657273696f6e2c000000000000000000000000000000000060398201527f75696e7432353620636861696e49642c0000000000000000000000000000000060488201527f6164647265737320766572696679696e67436f6e74726163740000000000000060588201527f290000000000000000000000000000000000000000000000000000000000000060718201526072015b6040516020818303038152906040528051906020012081565b6000467f000000000000000000000000000000000000000000000000000000000000000014610ac6576040517f08c379a000000000000000000000000000000000000000000000000000000000815260206004820152601060248201527f434841494e5f49445f4348414e474544000000000000000000000000000000006044820152606401610588565b428711610b2f576040517f08c379a000000000000000000000000000000000000000000000000000000000815260206004820152600d60248201527f4558504952595f504153534544000000000000000000000000000000000000006044820152606401610588565b6040517f436c61696d28000000000000000000000000000000000000000000000000000060208201527f75696e74323536206e6f6e63652c00000000000000000000000000000000000060268201527f75696e74323536206578706972792c000000000000000000000000000000000060348201527f61646472657373207061727469636970616e742c00000000000000000000000060438201527f75696e743235362073636f72650000000000000000000000000000000000000060578201527f29000000000000000000000000000000000000000000000000000000000000006064820152600090606501604080517fffffffffffffffffffffffffffffffffffffffffffffffffffffffffffffffe081840301815282825280516020918201209083015281018a90526060810189905273ffffffffffffffffffffffffffffffffffffffff8816608082015260a0810187905260c001604051602081830303815290604052805190602001209050600060017f000000000000000000000000000000000000000000000000000000000000000083604051602001610d089291907f190100000000000000000000000000000000000000000000000000000000000081526002810192909252602282015260420190565b604080517fffffffffffffffffffffffffffffffffffffffffffffffffffffffffffffffe08184030181528282528051602091820120600084529083018083525260ff891690820152606081018790526080810186905260a0016020604051602081039080840390855afa158015610d84573d6000803e3d6000fd5b5050604080517fffffffffffffffffffffffffffffffffffffffffffffffffffffffffffffffe0015173ffffffffffffffffffffffffffffffffffffffff811660009081526003602052919091205490925060ff1690508015610dee5750610dec888b6104a6565b155b610dfc576000925082610e02565b60019250825b505050979650505050505050565b610e2289888a8989338a8a8a8a6119e9565b50505050505050505050565b60005473ffffffffffffffffffffffffffffffffffffffff163314610eaf576040517f08c379a000000000000000000000000000000000000000000000000000000000815260206004820181905260248201527f4f776e61626c653a2063616c6c6572206973206e6f7420746865206f776e65726044820152606401610588565b604d811115610f1a576040517f08c379a000000000000000000000000000000000000000000000000000000000815260206004820152600e60248201527f5343414c455f544f4f5f484947480000000000000000000000000000000000006044820152606401610588565b60018190556040518181527fb7f1dd786998967316283c7e129a0bbeaf046b77f2f51afe39bb89a10f29a00e9060200161092c565b6040517f70a08231000000000000000000000000000000000000000000000000000000008152306004820152600090819073ffffffffffffffffffffffffffffffffffffffff8416906370a082319060240160206040518083038186803b158015610fb957600080fd5b505afa158015610fcd573d6000803e3d6000fd5b505050506040513d601f19601f82011682018060405250810190610ff19190612953565b9050600084600154600a6110059190612ccc565b61100f9190612c3f565b905060648183876002546110239190612d92565b61102d9190612d92565b6110379190612c57565b6110419190612c57565b95945050505050565b6040517f436c61696d28000000000000000000000000000000000000000000000000000060208201527f75696e74323536206e6f6e63652c00000000000000000000000000000000000060268201527f75696e74323536206578706972792c000000000000000000000000000000000060348201527f61646472657373207061727469636970616e742c00000000000000000000000060438201527f75696e743235362073636f72650000000000000000000000000000000000000060578201527f29000000000000000000000000000000000000000000000000000000000000006064820152606501610a22565b60005473ffffffffffffffffffffffffffffffffffffffff1633146111ba576040517f08c379a000000000000000000000000000000000000000000000000000000000815260206004820181905260248201527f4f776e61626c653a2063616c6c6572206973206e6f7420746865206f776e65726044820152606401610588565b73ffffffffffffffffffffffffffffffffffffffff8116611237576040517f08c379a000000000000000000000000000000000000000000000000000000000815260206004820152600f60248201527f494e56414c49445f4144445245535300000000000000000000000000000000006044820152606401610588565b73ffffffffffffffffffffffffffffffffffffffff16600090815260036020526040902080547fffffffffffffffffffffffffffffffffffffffffffffffffffffffffffffff00166001179055565b60005473ffffffffffffffffffffffffffffffffffffffff163314611307576040517f08c379a000000000000000000000000000000000000000000000000000000000815260206004820181905260248201527f4f776e61626c653a2063616c6c6572206973206e6f7420746865206f776e65726044820152606401610588565b6113116000611df3565b565b611326600033898989338a8a8a8a6119e9565b5050505050505050565b60065473ffffffffffffffffffffffffffffffffffffffff8881169116146113b4576040517f08c379a000000000000000000000000000000000000000000000000000000000815260206004820152600d60248201527f494e56414c49445f544f4b454e000000000000000000000000000000000000006044820152606401610588565b6113c386863387878787611e68565b60006113d085898b6122e7565b6005546040517f2ee409080000000000000000000000000000000000000000000000000000000081523360048201526024810183905291925073ffffffffffffffffffffffffffffffffffffffff1690632ee4090890604401600060405180830381600087803b15801561144357600080fd5b505af1158015611457573d6000803e3d6000fd5b50506040805173ffffffffffffffffffffffffffffffffffffffff8c1681526020810185905290810188905233925088915089907faaf3e8be924534753bc291b29aca3f9e644a7ece9fd26c95e3390ec71870a8929060600160405180910390a4505050505050505050565b60005473ffffffffffffffffffffffffffffffffffffffff163314611544576040517f08c379a000000000000000000000000000000000000000000000000000000000815260206004820181905260248201527f4f776e61626c653a2063616c6c6572206973206e6f7420746865206f776e65726044820152606401610588565b73ffffffffffffffffffffffffffffffffffffffff81166115c1576040517f08c379a000000000000000000000000000000000000000000000000000000000815260206004820152600f60248201527f494e56414c49445f4144445245535300000000000000000000000000000000006044820152606401610588565b6005546006546115ec9173ffffffffffffffffffffffffffffffffffffffff91821691166000611bc6565b600580547fffffffffffffffffffffffff00000000000000000000000000000000000000001673ffffffffffffffffffffffffffffffffffffffff83811691821790925560065461080c9216907fffffffffffffffffffffffffffffffffffffffffffffffffffffffffffffffff611bc6565b60005473ffffffffffffffffffffffffffffffffffffffff1633146116e0576040517f08c379a000000000000000000000000000000000000000000000000000000000815260206004820181905260248201527f4f776e61626c653a2063616c6c6572206973206e6f7420746865206f776e65726044820152606401610588565b60005b828110156118115760008484838181106116ff576116ff612eaa565b905060200201602081019061171491906127ec565b6040517f70a0823100000000000000000000000000000000000000000000000000000000815230600482015273ffffffffffffffffffffffffffffffffffffffff91909116906370a082319060240160206040518083038186803b15801561177b57600080fd5b505afa15801561178f573d6000803e3d6000fd5b505050506040513d601f19601f820116820180604052508101906117b39190612953565b90506117fe83828787868181106117cc576117cc612eaa565b90506020020160208101906117e191906127ec565b73ffffffffffffffffffffffffffffffffffffffff1691906123ca565b508061180981612dff565b9150506116e3565b507f4b713dd63c7c270b811762a754d42e5d79ea1ba9d3a0899d73eab3e38b50cd6f83838360405161184593929190612b76565b60405180910390a1505050565b60065473ffffffffffffffffffffffffffffffffffffffff8981169116146118d6576040517f08c379a000000000000000000000000000000000000000000000000000000000815260206004820152600d60248201527f494e56414c49445f544f4b454e000000000000000000000000000000000000006044820152606401610588565b6118e586863387878787611e68565b60006118f2858a8c6122e7565b6005546040517f2ee4090800000000000000000000000000000000000000000000000000000000815273ffffffffffffffffffffffffffffffffffffffff8b8116600483015260248201849052929350911690632ee4090890604401600060405180830381600087803b15801561196857600080fd5b505af115801561197c573d6000803e3d6000fd5b50506040805173ffffffffffffffffffffffffffffffffffffffff8d1681526020810185905290810188905233925088915089907faaf3e8be924534753bc291b29aca3f9e644a7ece9fd26c95e3390ec71870a8929060600160405180910390a450505050505050505050565b60006119fa88888888888888611e68565b6000611a07868b8e6122e7565b9050611a2a73ffffffffffffffffffffffffffffffffffffffff8b168c836123ca565b6040805173ffffffffffffffffffffffffffffffffffffffff8c81168252602082018490529181018890529088169089908b907faaf3e8be924534753bc291b29aca3f9e644a7ece9fd26c95e3390ec71870a8929060600160405180910390a49b9a5050505050505050505050565b60005473ffffffffffffffffffffffffffffffffffffffff163314611b1a576040517f08c379a000000000000000000000000000000000000000000000000000000000815260206004820181905260248201527f4f776e61626c653a2063616c6c6572206973206e6f7420746865206f776e65726044820152606401610588565b73ffffffffffffffffffffffffffffffffffffffff8116611bbd576040517f08c379a000000000000000000000000000000000000000000000000000000000815260206004820152602660248201527f4f776e61626c653a206e6577206f776e657220697320746865207a65726f206160448201527f64647265737300000000000000000000000000000000000000000000000000006064820152608401610588565b61080c81611df3565b801580611c7557506040517fdd62ed3e00000000000000000000000000000000000000000000000000000000815230600482015273ffffffffffffffffffffffffffffffffffffffff838116602483015284169063dd62ed3e9060440160206040518083038186803b158015611c3b57600080fd5b505afa158015611c4f573d6000803e3d6000fd5b505050506040513d601f19601f82011682018060405250810190611c739190612953565b155b611d01576040517f08c379a000000000000000000000000000000000000000000000000000000000815260206004820152603660248201527f5361666545524332303a20617070726f76652066726f6d206e6f6e2d7a65726f60448201527f20746f206e6f6e2d7a65726f20616c6c6f77616e6365000000000000000000006064820152608401610588565b60405173ffffffffffffffffffffffffffffffffffffffff8316602482015260448101829052611dd59084907f095ea7b300000000000000000000000000000000000000000000000000000000906064015b604080517fffffffffffffffffffffffffffffffffffffffffffffffffffffffffffffffe08184030181529190526020810180517bffffffffffffffffffffffffffffffffffffffffffffffffffffffff167fffffffff0000000000000000000000000000000000000000000000000000000090931692909217909152612420565b505050565b6060611de9848460008561252c565b90505b9392505050565b6000805473ffffffffffffffffffffffffffffffffffffffff8381167fffffffffffffffffffffffff0000000000000000000000000000000000000000831681178455604051919092169283917f8be0079c531659141344cd1fd0a4f28419497f9722a3daafe3b4186f6b6457e09190a35050565b467f000000000000000000000000000000000000000000000000000000000000000014611ef1576040517f08c379a000000000000000000000000000000000000000000000000000000000815260206004820152601060248201527f434841494e5f49445f4348414e474544000000000000000000000000000000006044820152606401610588565b428611611f5a576040517f08c379a000000000000000000000000000000000000000000000000000000000815260206004820152600d60248201527f4558504952595f504153534544000000000000000000000000000000000000006044820152606401610588565b6040517f436c61696d28000000000000000000000000000000000000000000000000000060208201527f75696e74323536206e6f6e63652c00000000000000000000000000000000000060268201527f75696e74323536206578706972792c000000000000000000000000000000000060348201527f61646472657373207061727469636970616e742c00000000000000000000000060438201527f75696e743235362073636f72650000000000000000000000000000000000000060578201527f29000000000000000000000000000000000000000000000000000000000000006064820152600090606501604080517fffffffffffffffffffffffffffffffffffffffffffffffffffffffffffffffe081840301815282825280516020918201209083015281018990526060810188905273ffffffffffffffffffffffffffffffffffffffff8716608082015260a0810186905260c001604051602081830303815290604052805190602001209050600060017f0000000000000000000000000000000000000000000000000000000000000000836040516020016121339291907f190100000000000000000000000000000000000000000000000000000000000081526002810192909252602282015260420190565b604080517fffffffffffffffffffffffffffffffffffffffffffffffffffffffffffffffe08184030181528282528051602091820120600084529083018083525260ff881690820152606081018690526080810185905260a0016020604051602081039080840390855afa1580156121af573d6000803e3d6000fd5b5050604080517fffffffffffffffffffffffffffffffffffffffffffffffffffffffffffffffe0015173ffffffffffffffffffffffffffffffffffffffff811660009081526003602052919091205490925060ff16905061226c576040517f08c379a000000000000000000000000000000000000000000000000000000000815260206004820152600c60248201527f554e415554484f52495a454400000000000000000000000000000000000000006044820152606401610588565b612276878a6126ac565b6122dc576040517f08c379a000000000000000000000000000000000000000000000000000000000815260206004820152601260248201527f4e4f4e43455f414c52454144595f5553454400000000000000000000000000006044820152606401610588565b505050505050505050565b6000808411612352576040517f08c379a000000000000000000000000000000000000000000000000000000000815260206004820152601660248201527f53434f52455f4d5553545f42455f50524f5649444544000000000000000000006044820152606401610588565b600061235e8585610f4f565b905082811015611de9576040517f08c379a000000000000000000000000000000000000000000000000000000000815260206004820152601360248201527f494e53554646494349454e545f414d4f554e54000000000000000000000000006044820152606401610588565b60405173ffffffffffffffffffffffffffffffffffffffff8316602482015260448101829052611dd59084907fa9059cbb0000000000000000000000000000000000000000000000000000000090606401611d53565b6000612482826040518060400160405280602081526020017f5361666545524332303a206c6f772d6c6576656c2063616c6c206661696c65648152508573ffffffffffffffffffffffffffffffffffffffff16611dda9092919063ffffffff16565b805190915015611dd557808060200190518101906124a09190612918565b611dd5576040517f08c379a000000000000000000000000000000000000000000000000000000000815260206004820152602a60248201527f5361666545524332303a204552433230206f7065726174696f6e20646964206e60448201527f6f742073756363656564000000000000000000000000000000000000000000006064820152608401610588565b6060824710156125be576040517f08c379a000000000000000000000000000000000000000000000000000000000815260206004820152602660248201527f416464726573733a20696e73756666696369656e742062616c616e636520666f60448201527f722063616c6c00000000000000000000000000000000000000000000000000006064820152608401610588565b843b612626576040517f08c379a000000000000000000000000000000000000000000000000000000000815260206004820152601d60248201527f416464726573733a2063616c6c20746f206e6f6e2d636f6e74726163740000006044820152606401610588565b6000808673ffffffffffffffffffffffffffffffffffffffff16858760405161264f9190612b5a565b60006040518083038185875af1925050503d806000811461268c576040519150601f19603f3d011682016040523d82523d6000602084013e612691565b606091505b50915091506126a182828661275f565b979650505050505050565b6000806126bb61010084612c57565b905060006126cb61010085612e38565b73ffffffffffffffffffffffffffffffffffffffff86166000908152600460209081526040808320868452909152902054909150600181831c811614156127185760009350505050610505565b73ffffffffffffffffffffffffffffffffffffffff861660009081526004602090815260408083209583529490529290922060019182901b92909217909155905092915050565b6060831561276e575081611dec565b82511561277e5782518084602001fd5b816040517f08c379a00000000000000000000000000000000000000000000000000000000081526004016105889190612bee565b803573ffffffffffffffffffffffffffffffffffffffff811681146127d657600080fd5b919050565b803560ff811681146127d657600080fd5b6000602082840312156127fe57600080fd5b611dec826127b2565b6000806040838503121561281a57600080fd5b612823836127b2565b946020939093013593505050565b600080600080600080600060e0888a03121561284c57600080fd5b612855886127b2565b9650602088013595506040880135945060608801359350612878608089016127db565b925060a0880135915060c0880135905092959891949750929550565b6000806000604084860312156128a957600080fd5b833567ffffffffffffffff808211156128c157600080fd5b818601915086601f8301126128d557600080fd5b8135818111156128e457600080fd5b8760208260051b85010111156128f957600080fd5b60209283019550935061290f91860190506127b2565b90509250925092565b60006020828403121561292a57600080fd5b81518015158114611dec57600080fd5b60006020828403121561294c57600080fd5b5035919050565b60006020828403121561296557600080fd5b5051919050565b6000806040838503121561297f57600080fd5b8235915061298f602084016127b2565b90509250929050565b6000806000806000806000806000806101408b8d0312156129b857600080fd5b8a3599506129c860208c016127b2565b98506129d660408c016127b2565b975060608b0135965060808b013595506129f260a08c016127b2565b945060c08b01359350612a0760e08c016127db565b92506101008b013591506101208b013590509295989b9194979a5092959850565b60008060008060008060008060006101208a8c031215612a4757600080fd5b89359850612a5760208b016127b2565b9750612a6560408b016127b2565b965060608a0135955060808a0135945060a08a01359350612a8860c08b016127db565b925060e08a013591506101008a013590509295985092959850929598565b600080600080600080600080610100898b031215612ac357600080fd5b88359750612ad360208a016127b2565b9650604089013595506060890135945060808901359350612af660a08a016127db565b925060c0890135915060e089013590509295985092959890939650565b600080600080600080600060e0888a031215612b2e57600080fd5b8735965060208801359550612b45604089016127b2565b945060608801359350612878608089016127db565b60008251612b6c818460208701612dcf565b9190910192915050565b6040808252810183905260008460608301825b86811015612bc45773ffffffffffffffffffffffffffffffffffffffff612baf846127b2565b16825260209283019290910190600101612b89565b50809250505073ffffffffffffffffffffffffffffffffffffffff83166020830152949350505050565b6020815260008251806020840152612c0d816040850160208701612dcf565b601f017fffffffffffffffffffffffffffffffffffffffffffffffffffffffffffffffe0169190910160400192915050565b60008219821115612c5257612c52612e4c565b500190565b600082612c6657612c66612e7b565b500490565b600181815b80851115612cc457817fffffffffffffffffffffffffffffffffffffffffffffffffffffffffffffffff04821115612caa57612caa612e4c565b80851615612cb757918102915b93841c9390800290612c70565b509250929050565b6000611dec8383600082612ce257506001610505565b81612cef57506000610505565b8160018114612d055760028114612d0f57612d2b565b6001915050610505565b60ff841115612d2057612d20612e4c565b50506001821b610505565b5060208310610133831016604e8410600b8410161715612d4e575081810a610505565b612d588383612c6b565b807fffffffffffffffffffffffffffffffffffffffffffffffffffffffffffffffff04821115612d8a57612d8a612e4c565b029392505050565b6000817fffffffffffffffffffffffffffffffffffffffffffffffffffffffffffffffff0483118215151615612dca57612dca612e4c565b500290565b60005b83811015612dea578181015183820152602001612dd2565b83811115612df9576000848401525b50505050565b60007fffffffffffffffffffffffffffffffffffffffffffffffffffffffffffffffff821415612e3157612e31612e4c565b5060010190565b600082612e4757612e47612e7b565b500690565b7f4e487b7100000000000000000000000000000000000000000000000000000000600052601160045260246000fd5b7f4e487b7100000000000000000000000000000000000000000000000000000000600052601260045260246000fd5b7f4e487b7100000000000000000000000000000000000000000000000000000000600052603260045260246000fdfea2646970667358221220e5c58c30caf932b115e978b79eb2ff8d8d946f24196e390bd639cc575cd66bbf64736f6c63430008070033",
  "linkReferences": {},
  "deployedLinkReferences": {}
}