{
  "_format": "hh-sol-artifact-1",
  "contractName": "Converter",
  "sourceName": "contracts/Converter.sol",
  "abi": [
    {
      "inputs": [
        {
          "internalType": "address",
          "name": "_wETH",
          "type": "address"
        },
        {
          "internalType": "address",
          "name": "_swapToToken",
          "type": "address"
        },
        {
          "internalType": "address",
          "name": "_uniRouter",
          "type": "address"
        },
        {
          "internalType": "uint256",
          "name": "_triggerFee",
          "type": "uint256"
        },
        {
          "internalType": "address[]",
          "name": "_payees",
          "type": "address[]"
        },
        {
          "internalType": "uint256[]",
          "name": "_shares",
          "type": "uint256[]"
        }
      ],
      "stateMutability": "nonpayable",
      "type": "constructor"
    },
    {
      "anonymous": false,
      "inputs": [
        {
          "indexed": false,
          "internalType": "address",
          "name": "triggerAccount",
          "type": "address"
        },
        {
          "indexed": false,
          "internalType": "address",
          "name": "swapFromToken",
          "type": "address"
        },
        {
          "indexed": false,
          "internalType": "address",
          "name": "swapToToken",
          "type": "address"
        },
        {
          "indexed": false,
          "internalType": "uint256",
          "name": "amountTokenFrom",
          "type": "uint256"
        },
        {
          "indexed": false,
          "internalType": "uint256",
          "name": "amountTokenTo",
          "type": "uint256"
        },
        {
          "indexed": false,
          "internalType": "address[]",
          "name": "recievedAddresses",
          "type": "address[]"
        }
      ],
      "name": "ConvertAndTransfer",
      "type": "event"
    },
    {
      "anonymous": false,
      "inputs": [
        {
          "indexed": false,
          "internalType": "address[]",
          "name": "tokens",
          "type": "address[]"
        },
        {
          "indexed": false,
          "internalType": "address",
          "name": "dest",
          "type": "address"
        }
      ],
      "name": "DrainTo",
      "type": "event"
    },
    {
      "anonymous": false,
      "inputs": [
        {
          "indexed": true,
          "internalType": "address",
          "name": "previousOwner",
          "type": "address"
        },
        {
          "indexed": true,
          "internalType": "address",
          "name": "newOwner",
          "type": "address"
        }
      ],
      "name": "OwnershipTransferred",
      "type": "event"
    },
    {
      "anonymous": false,
      "inputs": [
        {
          "indexed": false,
          "internalType": "address",
          "name": "account",
          "type": "address"
        },
        {
          "indexed": false,
          "internalType": "uint256",
          "name": "shares",
          "type": "uint256"
        }
      ],
      "name": "PayeeAdded",
      "type": "event"
    },
    {
      "anonymous": false,
      "inputs": [
        {
          "indexed": false,
          "internalType": "address",
          "name": "account",
          "type": "address"
        }
      ],
      "name": "PayeeRemoved",
      "type": "event"
    },
    {
      "inputs": [
        {
          "internalType": "address",
          "name": "_account",
          "type": "address"
        },
        {
          "internalType": "uint256",
          "name": "_shares",
          "type": "uint256"
        }
      ],
      "name": "addPayee",
      "outputs": [],
      "stateMutability": "nonpayable",
      "type": "function"
    },
    {
      "inputs": [
        {
          "internalType": "address",
          "name": "_swapFromToken",
          "type": "address"
        },
        {
          "internalType": "uint256",
          "name": "_amountOutMin",
          "type": "uint256"
        }
      ],
      "name": "convertAndTransfer",
      "outputs": [],
      "stateMutability": "nonpayable",
      "type": "function"
    },
    {
      "inputs": [
        {
          "internalType": "address",
          "name": "_transferTo",
          "type": "address"
        },
        {
          "internalType": "address[]",
          "name": "_tokens",
          "type": "address[]"
        }
      ],
      "name": "drainTo",
      "outputs": [],
      "stateMutability": "nonpayable",
      "type": "function"
    },
    {
      "inputs": [
        {
          "internalType": "address",
          "name": "_token",
          "type": "address"
        }
      ],
      "name": "getTokenPath",
      "outputs": [
        {
          "internalType": "address[]",
          "name": "",
          "type": "address[]"
        }
      ],
      "stateMutability": "view",
      "type": "function"
    },
    {
      "inputs": [],
      "name": "owner",
      "outputs": [
        {
          "internalType": "address",
          "name": "",
          "type": "address"
        }
      ],
      "stateMutability": "view",
      "type": "function"
    },
    {
      "inputs": [
        {
          "internalType": "uint256",
          "name": "index",
          "type": "uint256"
        }
      ],
      "name": "payee",
      "outputs": [
        {
          "internalType": "address",
          "name": "",
          "type": "address"
        }
      ],
      "stateMutability": "view",
      "type": "function"
    },
    {
      "inputs": [
        {
          "internalType": "address",
          "name": "_account",
          "type": "address"
        },
        {
          "internalType": "uint256",
          "name": "_index",
          "type": "uint256"
        }
      ],
      "name": "removePayee",
      "outputs": [],
      "stateMutability": "nonpayable",
      "type": "function"
    },
    {
      "inputs": [],
      "name": "renounceOwnership",
      "outputs": [],
      "stateMutability": "nonpayable",
      "type": "function"
    },
    {
      "inputs": [
        {
          "internalType": "address",
          "name": "_swapToToken",
          "type": "address"
        }
      ],
      "name": "setSwapToToken",
      "outputs": [],
      "stateMutability": "nonpayable",
      "type": "function"
    },
    {
      "inputs": [
        {
          "internalType": "address",
          "name": "_token",
          "type": "address"
        },
        {
          "internalType": "address[]",
          "name": "_tokenPath",
          "type": "address[]"
        }
      ],
      "name": "setTokenPath",
      "outputs": [],
      "stateMutability": "nonpayable",
      "type": "function"
    },
    {
      "inputs": [
        {
          "internalType": "uint256",
          "name": "_triggerFee",
          "type": "uint256"
        }
      ],
      "name": "setTriggerFee",
      "outputs": [],
      "stateMutability": "nonpayable",
      "type": "function"
    },
    {
      "inputs": [
        {
          "internalType": "address",
          "name": "_swapWETH",
          "type": "address"
        }
      ],
      "name": "setWETH",
      "outputs": [],
      "stateMutability": "nonpayable",
      "type": "function"
    },
    {
      "inputs": [
        {
          "internalType": "address",
          "name": "account",
          "type": "address"
        }
      ],
      "name": "shares",
      "outputs": [
        {
          "internalType": "uint256",
          "name": "",
          "type": "uint256"
        }
      ],
      "stateMutability": "view",
      "type": "function"
    },
    {
      "inputs": [],
      "name": "swapToToken",
      "outputs": [
        {
          "internalType": "address",
          "name": "",
          "type": "address"
        }
      ],
      "stateMutability": "view",
      "type": "function"
    },
    {
      "inputs": [],
      "name": "totalShares",
      "outputs": [
        {
          "internalType": "uint256",
          "name": "",
          "type": "uint256"
        }
      ],
      "stateMutability": "view",
      "type": "function"
    },
    {
      "inputs": [
        {
          "internalType": "address",
          "name": "newOwner",
          "type": "address"
        }
      ],
      "name": "transferOwnership",
      "outputs": [],
      "stateMutability": "nonpayable",
      "type": "function"
    },
    {
      "inputs": [],
      "name": "triggerFee",
      "outputs": [
        {
          "internalType": "uint256",
          "name": "",
          "type": "uint256"
        }
      ],
      "stateMutability": "view",
      "type": "function"
    },
    {
      "inputs": [],
      "name": "uniRouter",
      "outputs": [
        {
          "internalType": "address",
          "name": "",
          "type": "address"
        }
      ],
      "stateMutability": "view",
      "type": "function"
    },
    {
      "inputs": [],
      "name": "wETH",
      "outputs": [
        {
          "internalType": "address",
          "name": "",
          "type": "address"
        }
      ],
      "stateMutability": "view",
      "type": "function"
    }
  ],
  "bytecode": "0x60a06040523480156200001157600080fd5b5060405162002e1b38038062002e1b83398101604081905262000034916200056a565b81816200004133620001dd565b600180558051825114620000c25760405162461bcd60e51b815260206004820152603760248201527f546f6b656e5061796d656e7453706c69747465723a2070617965657320616e6460448201527f20736861726573206c656e677468206d69736d6174636800000000000000000060648201526084015b60405180910390fd5b6000825111620001155760405162461bcd60e51b815260206004820152601f60248201527f546f6b656e5061796d656e7453706c69747465723a206e6f20706179656573006044820152606401620000b9565b60005b825181101562000181576200016c8382815181106200013b576200013b6200072a565b60200260200101518383815181106200015857620001586200072a565b60200260200101516200022d60201b60201c565b806200017881620006f6565b91505062000118565b5050600580546001600160a01b03808a166001600160a01b0319928316179092556006805492891692909116919091179055506001600160601b0319606085901b16608052620001d18362000430565b50505050505062000756565b600080546001600160a01b038381166001600160a01b0319831681178455604051919092169283917f8be0079c531659141344cd1fd0a4f28419497f9722a3daafe3b4186f6b6457e09190a35050565b6001600160a01b0382166200029f5760405162461bcd60e51b815260206004820152603160248201527f546f6b656e5061796d656e7453706c69747465723a206163636f756e7420697360448201527020746865207a65726f206164647265737360781b6064820152608401620000b9565b60008111620002fc5760405162461bcd60e51b815260206004820152602260248201527f546f6b656e5061796d656e7453706c69747465723a2073686172657320617265604482015261020360f41b6064820152608401620000b9565b6001600160a01b038216600090815260036020526040902054156200037d5760405162461bcd60e51b815260206004820152603060248201527f546f6b656e5061796d656e7453706c69747465723a206163636f756e7420616c60448201526f7265616479206861732073686172657360801b6064820152608401620000b9565b60048054600181019091557f8a35acfbc15ff81a39ae7d344fd709f28e8600b4aa8c65c6b64bfe7fe36bd19b0180546001600160a01b0319166001600160a01b0384169081179091556000908152600360205260409020819055600254620003e7908290620006db565b600255604080516001600160a01b0384168152602081018390527f40c340f65e17194d14ddddb073d3c9f888e3cb52b5aae0c6c7706b4fbc905fac910160405180910390a15050565b6000546001600160a01b031633146200048c5760405162461bcd60e51b815260206004820181905260248201527f4f776e61626c653a2063616c6c6572206973206e6f7420746865206f776e65726044820152606401620000b9565b6064811115620004ce5760405162461bcd60e51b815260206004820152600c60248201526b08c8a8abea89e9ebe90928e960a31b6044820152606401620000b9565b600755565b80516001600160a01b0381168114620004eb57600080fd5b919050565b600082601f8301126200050257600080fd5b815160206200051b6200051583620006b5565b62000682565b80838252828201915082860187848660051b89010111156200053c57600080fd5b60005b858110156200055d578151845292840192908401906001016200053f565b5090979650505050505050565b60008060008060008060c087890312156200058457600080fd5b6200058f87620004d3565b95506020620005a0818901620004d3565b9550620005b060408901620004d3565b606089015160808a015191965094506001600160401b0380821115620005d557600080fd5b818a0191508a601f830112620005ea57600080fd5b8151620005fb6200051582620006b5565b8082825285820191508585018e878560051b88010111156200061c57600080fd5b600095505b838610156200064a576200063581620004d3565b83526001959095019491860191860162000621565b5060a08d015190975094505050808311156200066557600080fd5b50506200067589828a01620004f0565b9150509295509295509295565b604051601f8201601f191681016001600160401b0381118282101715620006ad57620006ad62000740565b604052919050565b60006001600160401b03821115620006d157620006d162000740565b5060051b60200190565b60008219821115620006f157620006f162000714565b500190565b60006000198214156200070d576200070d62000714565b5060010190565b634e487b7160e01b600052601160045260246000fd5b634e487b7160e01b600052603260045260246000fd5b634e487b7160e01b600052604160045260246000fd5b60805160601c612698620007836000396000818161028401528181610b2c0152610b8e01526126986000f3fe608060405234801561001057600080fd5b50600436106101515760003560e01c806384e45c3d116100cd578063bde6ad0711610081578063f242862111610066578063f242862114610302578063f2fde38b14610322578063f68371571461033557600080fd5b8063bde6ad07146102b9578063ce7c2ac2146102cc57600080fd5b80638da5cb5b116100b25780638da5cb5b14610261578063a0e47bf61461027f578063b21285ce146102a657600080fd5b806384e45c3d1461023b5780638b83209b1461024e57600080fd5b80636a0c287a11610124578063715018a611610109578063715018a6146101db57806373b411cb146101e357806376aa3fef1461022857600080fd5b80636a0c287a146101a85780636a80d4ee146101c857600080fd5b806318f9b023146101565780631fc810c41461016b5780633a98ef391461017e5780635b769f3c14610195575b600080fd5b6101696101643660046121fd565b61033e565b005b610169610179366004612100565b6103d2565b6002545b6040519081526020015b60405180910390f35b6101696101a336600461205f565b610511565b6101bb6101b636600461205f565b610656565b60405161018c91906123ed565b6101696101d63660046121fd565b610769565b610169610db2565b6006546102039073ffffffffffffffffffffffffffffffffffffffff1681565b60405173ffffffffffffffffffffffffffffffffffffffff909116815260200161018c565b610169610236366004612249565b610e3f565b6101696102493660046121fd565b610f30565b61020361025c366004612249565b610fbb565b60005473ffffffffffffffffffffffffffffffffffffffff16610203565b6102037f000000000000000000000000000000000000000000000000000000000000000081565b6101696102b436600461205f565b61108c565b6101696102c736600461207a565b6111d1565b6101826102da36600461205f565b73ffffffffffffffffffffffffffffffffffffffff1660009081526003602052604090205490565b6005546102039073ffffffffffffffffffffffffffffffffffffffff1681565b61016961033036600461205f565b61131b565b61018260075481565b60005473ffffffffffffffffffffffffffffffffffffffff1633146103c4576040517f08c379a000000000000000000000000000000000000000000000000000000000815260206004820181905260248201527f4f776e61626c653a2063616c6c6572206973206e6f7420746865206f776e657260448201526064015b60405180910390fd5b6103ce828261144b565b5050565b60005473ffffffffffffffffffffffffffffffffffffffff163314610453576040517f08c379a000000000000000000000000000000000000000000000000000000000815260206004820181905260248201527f4f776e61626c653a2063616c6c6572206973206e6f7420746865206f776e657260448201526064016103bb565b805160005b8181101561050b5773ffffffffffffffffffffffffffffffffffffffff84166000908152600860205260409020835184908390811061049957610499612604565b60209081029190910181015182546001810184556000938452919092200180547fffffffffffffffffffffffff00000000000000000000000000000000000000001673ffffffffffffffffffffffffffffffffffffffff909216919091179055806105038161256d565b915050610458565b50505050565b60005473ffffffffffffffffffffffffffffffffffffffff163314610592576040517f08c379a000000000000000000000000000000000000000000000000000000000815260206004820181905260248201527f4f776e61626c653a2063616c6c6572206973206e6f7420746865206f776e657260448201526064016103bb565b73ffffffffffffffffffffffffffffffffffffffff811661060f576040517f08c379a000000000000000000000000000000000000000000000000000000000815260206004820152601560248201527f4d5553545f42455f56414c49445f41444452455353000000000000000000000060448201526064016103bb565b600580547fffffffffffffffffffffffff00000000000000000000000000000000000000001673ffffffffffffffffffffffffffffffffffffffff92909216919091179055565b60005460609073ffffffffffffffffffffffffffffffffffffffff1633146106da576040517f08c379a000000000000000000000000000000000000000000000000000000000815260206004820181905260248201527f4f776e61626c653a2063616c6c6572206973206e6f7420746865206f776e657260448201526064016103bb565b73ffffffffffffffffffffffffffffffffffffffff82166000908152600860209081526040918290208054835181840281018401909452808452909183018282801561075c57602002820191906000526020600020905b815473ffffffffffffffffffffffffffffffffffffffff168152600190910190602001808311610731575b505050505090505b919050565b60005473ffffffffffffffffffffffffffffffffffffffff1633146107ea576040517f08c379a000000000000000000000000000000000000000000000000000000000815260206004820181905260248201527f4f776e61626c653a2063616c6c6572206973206e6f7420746865206f776e657260448201526064016103bb565b60026001541415610857576040517f08c379a000000000000000000000000000000000000000000000000000000000815260206004820152601f60248201527f5265656e7472616e637947756172643a207265656e7472616e742063616c6c0060448201526064016103bb565b6002600190815560045410156108c9576040517f08c379a000000000000000000000000000000000000000000000000000000000815260206004820152601260248201527f5041594545535f4d5553545f42455f534554000000000000000000000000000060448201526064016103bb565b60008111610933576040517f08c379a000000000000000000000000000000000000000000000000000000000815260206004820152601260248201527f494e56414c49445f414d4f554e545f4f5554000000000000000000000000000060448201526064016103bb565b600061093e83611715565b9050600081116109aa576040517f08c379a000000000000000000000000000000000000000000000000000000000815260206004820152601560248201527f4e4f5f42414c414e43455f544f5f434f4e56455254000000000000000000000060448201526064016103bb565b60065473ffffffffffffffffffffffffffffffffffffffff848116911614610bff5773ffffffffffffffffffffffffffffffffffffffff831660009081526008602052604090205460609015610a0a57610a0384610656565b9050610b10565b73ffffffffffffffffffffffffffffffffffffffff8085166000818152600860209081526040822080546001818101835582855292842090810180547fffffffffffffffffffffffff0000000000000000000000000000000000000000908116909617905560058054835494850184559290945291909101805490931690841617909155546006548216911614610b045773ffffffffffffffffffffffffffffffffffffffff8085166000908152600860209081526040822060065481546001810183559184529190922090910180547fffffffffffffffffffffffff000000000000000000000000000000000000000016919092161790555b610b0d84610656565b90505b610b5173ffffffffffffffffffffffffffffffffffffffff85167f0000000000000000000000000000000000000000000000000000000000000000846117c1565b6040517f5c11d79500000000000000000000000000000000000000000000000000000000815273ffffffffffffffffffffffffffffffffffffffff7f00000000000000000000000000000000000000000000000000000000000000001690635c11d79590610bcb9085908790869030904290600401612451565b600060405180830381600087803b158015610be557600080fd5b505af1158015610bf9573d6000803e3d6000fd5b50505050505b600654600090610c249073ffffffffffffffffffffffffffffffffffffffff16611715565b60075490915015610c81576000606460075483610c4191906124ed565b610c4b91906124b2565b600654909150610c7390339073ffffffffffffffffffffffffffffffffffffffff168361194c565b610c7d818361252a565b9150505b60005b600454811015610d4a5760006002546003600060048581548110610caa57610caa612604565b600091825260208083209091015473ffffffffffffffffffffffffffffffffffffffff168352820192909252604001902054610ce690856124ed565b610cf091906124b2565b9050610d3760048381548110610d0857610d08612604565b60009182526020909120015460065473ffffffffffffffffffffffffffffffffffffffff91821691168361194c565b5080610d428161256d565b915050610c84565b506006546040517fbbff0d48cf418ade2cf203bbc04beecbb9959c8f7df1b4d3dcea3233e29a058a91610da0913391889173ffffffffffffffffffffffffffffffffffffffff90911690879087906004906122e8565b60405180910390a15050600180555050565b60005473ffffffffffffffffffffffffffffffffffffffff163314610e33576040517f08c379a000000000000000000000000000000000000000000000000000000000815260206004820181905260248201527f4f776e61626c653a2063616c6c6572206973206e6f7420746865206f776e657260448201526064016103bb565b610e3d6000611972565b565b60005473ffffffffffffffffffffffffffffffffffffffff163314610ec0576040517f08c379a000000000000000000000000000000000000000000000000000000000815260206004820181905260248201527f4f776e61626c653a2063616c6c6572206973206e6f7420746865206f776e657260448201526064016103bb565b6064811115610f2b576040517f08c379a000000000000000000000000000000000000000000000000000000000815260206004820152600c60248201527f4645455f544f4f5f48494748000000000000000000000000000000000000000060448201526064016103bb565b600755565b60005473ffffffffffffffffffffffffffffffffffffffff163314610fb1576040517f08c379a000000000000000000000000000000000000000000000000000000000815260206004820181905260248201527f4f776e61626c653a2063616c6c6572206973206e6f7420746865206f776e657260448201526064016103bb565b6103ce82826119e7565b60045460009060011115611051576040517f08c379a000000000000000000000000000000000000000000000000000000000815260206004820152602960248201527f546f6b656e5061796d656e7453706c69747465723a205468657265206172652060448201527f6e6f20706179656573000000000000000000000000000000000000000000000060648201526084016103bb565b6004828154811061106457611064612604565b60009182526020909120015473ffffffffffffffffffffffffffffffffffffffff1692915050565b60005473ffffffffffffffffffffffffffffffffffffffff16331461110d576040517f08c379a000000000000000000000000000000000000000000000000000000000815260206004820181905260248201527f4f776e61626c653a2063616c6c6572206973206e6f7420746865206f776e657260448201526064016103bb565b73ffffffffffffffffffffffffffffffffffffffff811661118a576040517f08c379a000000000000000000000000000000000000000000000000000000000815260206004820152601560248201527f4d5553545f42455f56414c49445f41444452455353000000000000000000000060448201526064016103bb565b600680547fffffffffffffffffffffffff00000000000000000000000000000000000000001673ffffffffffffffffffffffffffffffffffffffff92909216919091179055565b60005473ffffffffffffffffffffffffffffffffffffffff163314611252576040517f08c379a000000000000000000000000000000000000000000000000000000000815260206004820181905260248201527f4f776e61626c653a2063616c6c6572206973206e6f7420746865206f776e657260448201526064016103bb565b60005b818110156112da57600061128e84848481811061127457611274612604565b9050602002016020810190611289919061205f565b611715565b905080156112c7576112c7858585858181106112ac576112ac612604565b90506020020160208101906112c1919061205f565b8361194c565b50806112d28161256d565b915050611255565b507f4b713dd63c7c270b811762a754d42e5d79ea1ba9d3a0899d73eab3e38b50cd6f82828560405161130e93929190612375565b60405180910390a1505050565b60005473ffffffffffffffffffffffffffffffffffffffff16331461139c576040517f08c379a000000000000000000000000000000000000000000000000000000000815260206004820181905260248201527f4f776e61626c653a2063616c6c6572206973206e6f7420746865206f776e657260448201526064016103bb565b73ffffffffffffffffffffffffffffffffffffffff811661143f576040517f08c379a000000000000000000000000000000000000000000000000000000000815260206004820152602660248201527f4f776e61626c653a206e6577206f776e657220697320746865207a65726f206160448201527f646472657373000000000000000000000000000000000000000000000000000060648201526084016103bb565b61144881611972565b50565b73ffffffffffffffffffffffffffffffffffffffff82166114ee576040517f08c379a000000000000000000000000000000000000000000000000000000000815260206004820152603160248201527f546f6b656e5061796d656e7453706c69747465723a206163636f756e7420697360448201527f20746865207a65726f206164647265737300000000000000000000000000000060648201526084016103bb565b6000811161157e576040517f08c379a000000000000000000000000000000000000000000000000000000000815260206004820152602260248201527f546f6b656e5061796d656e7453706c69747465723a207368617265732061726560448201527f203000000000000000000000000000000000000000000000000000000000000060648201526084016103bb565b73ffffffffffffffffffffffffffffffffffffffff821660009081526003602052604090205415611631576040517f08c379a000000000000000000000000000000000000000000000000000000000815260206004820152603060248201527f546f6b656e5061796d656e7453706c69747465723a206163636f756e7420616c60448201527f726561647920686173207368617265730000000000000000000000000000000060648201526084016103bb565b60048054600181019091557f8a35acfbc15ff81a39ae7d344fd709f28e8600b4aa8c65c6b64bfe7fe36bd19b0180547fffffffffffffffffffffffff00000000000000000000000000000000000000001673ffffffffffffffffffffffffffffffffffffffff841690811790915560009081526003602052604090208190556002546116be90829061249a565b6002556040805173ffffffffffffffffffffffffffffffffffffffff84168152602081018390527f40c340f65e17194d14ddddb073d3c9f888e3cb52b5aae0c6c7706b4fbc905fac91015b60405180910390a15050565b6040517f70a082310000000000000000000000000000000000000000000000000000000081523060048201526000908290829073ffffffffffffffffffffffffffffffffffffffff8316906370a082319060240160206040518083038186803b15801561178157600080fd5b505afa158015611795573d6000803e3d6000fd5b505050506040513d601f19601f820116820180604052508101906117b99190612262565b949350505050565b6040517fdd62ed3e00000000000000000000000000000000000000000000000000000000815230600482015273ffffffffffffffffffffffffffffffffffffffff8381166024830152600091839186169063dd62ed3e9060440160206040518083038186803b15801561183357600080fd5b505afa158015611847573d6000803e3d6000fd5b505050506040513d601f19601f8201168201806040525081019061186b9190612262565b611875919061249a565b60405173ffffffffffffffffffffffffffffffffffffffff851660248201526044810182905290915061050b9085907f095ea7b300000000000000000000000000000000000000000000000000000000906064015b604080517fffffffffffffffffffffffffffffffffffffffffffffffffffffffffffffffe08184030181529190526020810180517bffffffffffffffffffffffffffffffffffffffffffffffffffffffff167fffffffff0000000000000000000000000000000000000000000000000000000090931692909217909152611ced565b61196d73ffffffffffffffffffffffffffffffffffffffff83168483611df9565b505050565b6000805473ffffffffffffffffffffffffffffffffffffffff8381167fffffffffffffffffffffffff0000000000000000000000000000000000000000831681178455604051919092169283917f8be0079c531659141344cd1fd0a4f28419497f9722a3daafe3b4186f6b6457e09190a35050565b6004548110611a78576040517f08c379a000000000000000000000000000000000000000000000000000000000815260206004820152602e60248201527f546f6b656e5061796d656e7453706c69747465723a20696e646578206e6f742060448201527f696e20706179656520617272617900000000000000000000000000000000000060648201526084016103bb565b60048181548110611a8b57611a8b612604565b60009182526020909120015473ffffffffffffffffffffffffffffffffffffffff838116911614611b3e576040517f08c379a000000000000000000000000000000000000000000000000000000000815260206004820152603e60248201527f546f6b656e5061796d656e7453706c69747465723a206163636f756e7420646f60448201527f6573206e6f74206d6174636820706179656520617272617920696e646578000060648201526084016103bb565b73ffffffffffffffffffffffffffffffffffffffff8216600090815260036020526040902054600254611b71919061252a565b60025573ffffffffffffffffffffffffffffffffffffffff821660009081526003602052604081205560048054611baa9060019061252a565b81548110611bba57611bba612604565b6000918252602090912001546004805473ffffffffffffffffffffffffffffffffffffffff9092169183908110611bf357611bf3612604565b9060005260206000200160006101000a81548173ffffffffffffffffffffffffffffffffffffffff021916908373ffffffffffffffffffffffffffffffffffffffff1602179055506004805480611c4c57611c4c6125d5565b60008281526020908190207fffffffffffffffffffffffffffffffffffffffffffffffffffffffffffffffff908301810180547fffffffffffffffffffffffff000000000000000000000000000000000000000016905590910190915560405173ffffffffffffffffffffffffffffffffffffffff841681527fc2ee819acfe1baf117c2aac9d3f627a864f075d2fecc990eebd82d59f26626059101611709565b6000611d4f826040518060400160405280602081526020017f5361666545524332303a206c6f772d6c6576656c2063616c6c206661696c65648152508573ffffffffffffffffffffffffffffffffffffffff16611e4f9092919063ffffffff16565b80519091501561196d5780806020019051810190611d6d9190612227565b61196d576040517f08c379a000000000000000000000000000000000000000000000000000000000815260206004820152602a60248201527f5361666545524332303a204552433230206f7065726174696f6e20646964206e60448201527f6f7420737563636565640000000000000000000000000000000000000000000060648201526084016103bb565b60405173ffffffffffffffffffffffffffffffffffffffff831660248201526044810182905261196d9084907fa9059cbb00000000000000000000000000000000000000000000000000000000906064016118ca565b6060611e5e8484600085611e68565b90505b9392505050565b606082471015611efa576040517f08c379a000000000000000000000000000000000000000000000000000000000815260206004820152602660248201527f416464726573733a20696e73756666696369656e742062616c616e636520666f60448201527f722063616c6c000000000000000000000000000000000000000000000000000060648201526084016103bb565b843b611f62576040517f08c379a000000000000000000000000000000000000000000000000000000000815260206004820152601d60248201527f416464726573733a2063616c6c20746f206e6f6e2d636f6e747261637400000060448201526064016103bb565b6000808673ffffffffffffffffffffffffffffffffffffffff168587604051611f8b91906122cc565b60006040518083038185875af1925050503d8060008114611fc8576040519150601f19603f3d011682016040523d82523d6000602084013e611fcd565b606091505b5091509150611fdd828286611fe8565b979650505050505050565b60608315611ff7575081611e61565b8251156120075782518084602001fd5b816040517f08c379a00000000000000000000000000000000000000000000000000000000081526004016103bb9190612400565b803573ffffffffffffffffffffffffffffffffffffffff8116811461076457600080fd5b60006020828403121561207157600080fd5b611e618261203b565b60008060006040848603121561208f57600080fd5b6120988461203b565b9250602084013567ffffffffffffffff808211156120b557600080fd5b818601915086601f8301126120c957600080fd5b8135818111156120d857600080fd5b8760208260051b85010111156120ed57600080fd5b6020830194508093505050509250925092565b6000806040838503121561211357600080fd5b61211c8361203b565b915060208084013567ffffffffffffffff8082111561213a57600080fd5b818601915086601f83011261214e57600080fd5b81358181111561216057612160612633565b8060051b6040517fffffffffffffffffffffffffffffffffffffffffffffffffffffffffffffffe0603f830116810181811085821117156121a3576121a3612633565b604052828152858101935084860182860187018b10156121c257600080fd5b600095505b838610156121ec576121d88161203b565b8552600195909501949386019386016121c7565b508096505050505050509250929050565b6000806040838503121561221057600080fd5b6122198361203b565b946020939093013593505050565b60006020828403121561223957600080fd5b81518015158114611e6157600080fd5b60006020828403121561225b57600080fd5b5035919050565b60006020828403121561227457600080fd5b5051919050565b600081518084526020808501945080840160005b838110156122c157815173ffffffffffffffffffffffffffffffffffffffff168752958201959082019060010161228f565b509495945050505050565b600082516122de818460208701612541565b9190910192915050565b600060c0820173ffffffffffffffffffffffffffffffffffffffff808a1684526020818a1681860152818916604086015287606086015286608086015260c060a086015282865480855260e0870191508760005282600020945060005b81811015612363578554851683526001958601959284019201612345565b50909c9b505050505050505050505050565b6040808252810183905260008460608301825b868110156123c35773ffffffffffffffffffffffffffffffffffffffff6123ae8461203b565b16825260209283019290910190600101612388565b50809250505073ffffffffffffffffffffffffffffffffffffffff83166020830152949350505050565b602081526000611e61602083018461227b565b602081526000825180602084015261241f816040850160208701612541565b601f017fffffffffffffffffffffffffffffffffffffffffffffffffffffffffffffffe0169190910160400192915050565b85815284602082015260a06040820152600061247060a083018661227b565b73ffffffffffffffffffffffffffffffffffffffff94909416606083015250608001529392505050565b600082198211156124ad576124ad6125a6565b500190565b6000826124e8577f4e487b7100000000000000000000000000000000000000000000000000000000600052601260045260246000fd5b500490565b6000817fffffffffffffffffffffffffffffffffffffffffffffffffffffffffffffffff0483118215151615612525576125256125a6565b500290565b60008282101561253c5761253c6125a6565b500390565b60005b8381101561255c578181015183820152602001612544565b8381111561050b5750506000910152565b60007fffffffffffffffffffffffffffffffffffffffffffffffffffffffffffffffff82141561259f5761259f6125a6565b5060010190565b7f4e487b7100000000000000000000000000000000000000000000000000000000600052601160045260246000fd5b7f4e487b7100000000000000000000000000000000000000000000000000000000600052603160045260246000fd5b7f4e487b7100000000000000000000000000000000000000000000000000000000600052603260045260246000fd5b7f4e487b7100000000000000000000000000000000000000000000000000000000600052604160045260246000fdfea264697066735822122040da336282fc55be116a6ee6c79a2afa663e62ce06fa23c7a7b4b5d46ae8daa264736f6c63430008070033",
  "linkReferences": {},
  "deployedLinkReferences": {}
}