{
  "_format": "hh-sol-artifact-1",
  "contractName": "Registry",
  "sourceName": "contracts/Registry.sol",
  "abi": [
    {
      "inputs": [
        {
          "internalType": "contract IERC20",
          "name": "_stakingToken",
          "type": "address"
        },
        {
          "internalType": "uint256",
          "name": "_obligationCost",
          "type": "uint256"
        },
        {
          "internalType": "uint256",
          "name": "_tokenCost",
          "type": "uint256"
        }
      ],
      "stateMutability": "nonpayable",
      "type": "constructor"
    },
    {
      "anonymous": false,
      "inputs": [
        {
          "indexed": true,
          "internalType": "address",
          "name": "account",
          "type": "address"
        },
        {
          "indexed": false,
          "internalType": "address[]",
          "name": "tokens",
          "type": "address[]"
        }
      ],
      "name": "AddTokens",
      "type": "event"
    },
    {
      "anonymous": false,
      "inputs": [
        {
          "indexed": true,
          "internalType": "address",
          "name": "account",
          "type": "address"
        }
      ],
      "name": "FullUnstake",
      "type": "event"
    },
    {
      "anonymous": false,
      "inputs": [
        {
          "indexed": true,
          "internalType": "address",
          "name": "account",
          "type": "address"
        }
      ],
      "name": "InitialStake",
      "type": "event"
    },
    {
      "anonymous": false,
      "inputs": [
        {
          "indexed": true,
          "internalType": "address",
          "name": "account",
          "type": "address"
        },
        {
          "indexed": false,
          "internalType": "address[]",
          "name": "tokens",
          "type": "address[]"
        }
      ],
      "name": "RemoveTokens",
      "type": "event"
    },
    {
      "anonymous": false,
      "inputs": [
        {
          "indexed": true,
          "internalType": "address",
          "name": "account",
          "type": "address"
        },
        {
          "indexed": false,
          "internalType": "string",
          "name": "url",
          "type": "string"
        }
      ],
      "name": "SetURL",
      "type": "event"
    },
    {
      "inputs": [
        {
          "internalType": "address[]",
          "name": "tokens",
          "type": "address[]"
        }
      ],
      "name": "addTokens",
      "outputs": [],
      "stateMutability": "nonpayable",
      "type": "function"
    },
    {
      "inputs": [
        {
          "internalType": "address",
          "name": "staker",
          "type": "address"
        }
      ],
      "name": "balanceOf",
      "outputs": [
        {
          "internalType": "uint256",
          "name": "",
          "type": "uint256"
        }
      ],
      "stateMutability": "view",
      "type": "function"
    },
    {
      "inputs": [
        {
          "internalType": "address",
          "name": "token",
          "type": "address"
        }
      ],
      "name": "getStakersForToken",
      "outputs": [
        {
          "internalType": "address[]",
          "name": "stakers",
          "type": "address[]"
        }
      ],
      "stateMutability": "view",
      "type": "function"
    },
    {
      "inputs": [
        {
          "internalType": "address",
          "name": "staker",
          "type": "address"
        }
      ],
      "name": "getSupportedTokens",
      "outputs": [
        {
          "internalType": "address[]",
          "name": "tokenList",
          "type": "address[]"
        }
      ],
      "stateMutability": "view",
      "type": "function"
    },
    {
      "inputs": [
        {
          "internalType": "address[]",
          "name": "stakers",
          "type": "address[]"
        }
      ],
      "name": "getURLsForStakers",
      "outputs": [
        {
          "internalType": "string[]",
          "name": "urls",
          "type": "string[]"
        }
      ],
      "stateMutability": "view",
      "type": "function"
    },
    {
      "inputs": [
        {
          "internalType": "address",
          "name": "token",
          "type": "address"
        }
      ],
      "name": "getURLsForToken",
      "outputs": [
        {
          "internalType": "string[]",
          "name": "urls",
          "type": "string[]"
        }
      ],
      "stateMutability": "view",
      "type": "function"
    },
    {
      "inputs": [],
      "name": "obligationCost",
      "outputs": [
        {
          "internalType": "uint256",
          "name": "",
          "type": "uint256"
        }
      ],
      "stateMutability": "view",
      "type": "function"
    },
    {
      "inputs": [],
      "name": "removeAllTokens",
      "outputs": [],
      "stateMutability": "nonpayable",
      "type": "function"
    },
    {
      "inputs": [
        {
          "internalType": "address[]",
          "name": "tokens",
          "type": "address[]"
        }
      ],
      "name": "removeTokens",
      "outputs": [],
      "stateMutability": "nonpayable",
      "type": "function"
    },
    {
      "inputs": [
        {
          "internalType": "string",
          "name": "_url",
          "type": "string"
        }
      ],
      "name": "setURL",
      "outputs": [],
      "stateMutability": "nonpayable",
      "type": "function"
    },
    {
      "inputs": [
        {
          "internalType": "address",
          "name": "",
          "type": "address"
        }
      ],
      "name": "stakerURLs",
      "outputs": [
        {
          "internalType": "string",
          "name": "",
          "type": "string"
        }
      ],
      "stateMutability": "view",
      "type": "function"
    },
    {
      "inputs": [],
      "name": "stakingToken",
      "outputs": [
        {
          "internalType": "contract IERC20",
          "name": "",
          "type": "address"
        }
      ],
      "stateMutability": "view",
      "type": "function"
    },
    {
      "inputs": [
        {
          "internalType": "address",
          "name": "staker",
          "type": "address"
        },
        {
          "internalType": "address",
          "name": "token",
          "type": "address"
        }
      ],
      "name": "supportsToken",
      "outputs": [
        {
          "internalType": "bool",
          "name": "",
          "type": "bool"
        }
      ],
      "stateMutability": "view",
      "type": "function"
    },
    {
      "inputs": [],
      "name": "tokenCost",
      "outputs": [
        {
          "internalType": "uint256",
          "name": "",
          "type": "uint256"
        }
      ],
      "stateMutability": "view",
      "type": "function"
    }
  ],
  "bytecode": "0x60e060405234801561001057600080fd5b50604051611e89380380611e8983398101604081905261002f9161004d565b60609290921b6001600160601b03191660805260a05260c052610090565b60008060006060848603121561006257600080fd5b83516001600160a01b038116811461007957600080fd5b602085015160409095015190969495509392505050565b60805160601c60a05160c051611d7a61010f6000396000818161024a01528181610547015281816107b701528181610b840152610dba01526000818161011d0152818161040d015281816107ef01528181610bae0152610de40152600081816101e3015281816105e7015281816108b30152610ea40152611d7a6000f3fe608060405234801561001057600080fd5b50600436106100ea5760003560e01c806370a082311161008c578063793cc5a111610066578063793cc5a11461023d578063912221d514610245578063c3ced1521461026c578063d12877dc1461028c57600080fd5b806370a08231146101cb57806372f702f3146101de578063773434081461022a57600080fd5b806353731c69116100c857806353731c69146101625780636c3824ef146101855780636df35874146101985780636e8658a7146101b857600080fd5b806307526acf146100ef5780632b24ef55146101185780634ae05c7d1461014d575b600080fd5b6101026100fd3660046117f0565b61029f565b60405161010f91906119f4565b60405180910390f35b61013f7f000000000000000000000000000000000000000000000000000000000000000081565b60405190815260200161010f565b61016061015b36600461183e565b61037d565b005b61017561017036600461180b565b610616565b604051901515815260200161010f565b61016061019336600461183e565b61064e565b6101ab6101a63660046117f0565b6108da565b60405161010f9190611a4e565b6101026101c63660046117f0565b610a68565b61013f6101d93660046117f0565b610b3e565b6102057f000000000000000000000000000000000000000000000000000000000000000081565b60405173ffffffffffffffffffffffffffffffffffffffff909116815260200161010f565b6101606102383660046118d5565b610bd9565b610160610c48565b61013f7f000000000000000000000000000000000000000000000000000000000000000081565b61027f61027a3660046117f0565b610ed1565b60405161010f9190611b1b565b6101ab61029a36600461183e565b610f6b565b73ffffffffffffffffffffffffffffffffffffffff811660009081526020819052604081206060916102d0826110ee565b90508067ffffffffffffffff8111156102eb576102eb611d15565b604051908082528060200260200182016040528015610314578160200160208202803683370190505b50925060005b818110156103755761032c83826110f8565b84828151811061033e5761033e611ce6565b73ffffffffffffffffffffffffffffffffffffffff909216602092830291909101909101528061036d81611c4f565b91505061031a565b505050919050565b80806103ea576040517f08c379a000000000000000000000000000000000000000000000000000000000815260206004820152601060248201527f4e4f5f544f4b454e535f544f5f4144440000000000000000000000000000000060448201526064015b60405180910390fd5b33600090815260208190526040812090610403826110ee565b61045657506040517f00000000000000000000000000000000000000000000000000000000000000009033907fb084bc494a89304dcf54b309b9692bdafd4b67539fd9dc15219bd6b82ecc61a390600090a25b60005b8381101561054057600086868381811061047557610475611ce6565b905060200201602081019061048a91906117f0565b90506104968482611104565b6104fc576040517f08c379a000000000000000000000000000000000000000000000000000000000815260206004820152600c60248201527f544f4b454e5f455849535453000000000000000000000000000000000000000060448201526064016103e1565b73ffffffffffffffffffffffffffffffffffffffff8116600090815260016020526040902061052b9033611104565b5050808061053890611c4f565b915050610459565b5061056b837f0000000000000000000000000000000000000000000000000000000000000000611b46565b6105759082611b2e565b90503373ffffffffffffffffffffffffffffffffffffffff167f8a4417f85fc0d82e2365afb5e344e2d731a29ce2b5a000da7857409c49d28cc286866040516105bf92919061199b565b60405180910390a2801561060f5761060f73ffffffffffffffffffffffffffffffffffffffff7f000000000000000000000000000000000000000000000000000000000000000016333084611126565b5050505050565b73ffffffffffffffffffffffffffffffffffffffff821660009081526020819052604081206106459083611202565b90505b92915050565b80806106b6576040517f08c379a000000000000000000000000000000000000000000000000000000000815260206004820152601360248201527f4e4f5f544f4b454e535f544f5f52454d4f56450000000000000000000000000060448201526064016103e1565b336000908152602081905260408120905b828110156107ae5760008585838181106106e3576106e3611ce6565b90506020020160208101906106f891906117f0565b90506107048382611231565b61076a576040517f08c379a000000000000000000000000000000000000000000000000000000000815260206004820152601460248201527f544f4b454e5f444f45535f4e4f545f455849535400000000000000000000000060448201526064016103e1565b73ffffffffffffffffffffffffffffffffffffffff811660009081526001602052604090206107999033611231565b505080806107a690611c4f565b9150506106c7565b5060006107db837f0000000000000000000000000000000000000000000000000000000000000000611b46565b90506107e6826110ee565b610843576108147f000000000000000000000000000000000000000000000000000000000000000082611b2e565b60405190915033907f5145121d6af63d58cca25c9f269c9ba617dded29d84ffd18499436c7c21b3f2890600090a25b3373ffffffffffffffffffffffffffffffffffffffff167f4efa1188fb6a3db44946ac387489b6f4e29207ef0d603be528f3747152588045868660405161088b92919061199b565b60405180910390a2801561060f5761060f73ffffffffffffffffffffffffffffffffffffffff7f0000000000000000000000000000000000000000000000000000000000000000163383611253565b73ffffffffffffffffffffffffffffffffffffffff8116600090815260016020526040812060609161090b826110ee565b90508067ffffffffffffffff81111561092657610926611d15565b60405190808252806020026020018201604052801561095957816020015b60608152602001906001900390816109445790505b50925060005b81811015610375576002600061097585846110f8565b73ffffffffffffffffffffffffffffffffffffffff1673ffffffffffffffffffffffffffffffffffffffff16815260200190815260200160002080546109ba90611bfb565b80601f01602080910402602001604051908101604052809291908181526020018280546109e690611bfb565b8015610a335780601f10610a0857610100808354040283529160200191610a33565b820191906000526020600020905b815481529060010190602001808311610a1657829003601f168201915b5050505050848281518110610a4a57610a4a611ce6565b60200260200101819052508080610a6090611c4f565b91505061095f565b73ffffffffffffffffffffffffffffffffffffffff81166000908152600160205260408120606091610a99826110ee565b90508067ffffffffffffffff811115610ab457610ab4611d15565b604051908082528060200260200182016040528015610add578160200160208202803683370190505b50925060005b8181101561037557610af583826110f8565b848281518110610b0757610b07611ce6565b73ffffffffffffffffffffffffffffffffffffffff9092166020928302919091019091015280610b3681611c4f565b915050610ae3565b73ffffffffffffffffffffffffffffffffffffffff811660009081526020819052604081208190610b6e906110ee565b905080610b7e5750600092915050565b610ba8817f0000000000000000000000000000000000000000000000000000000000000000611b46565b610bd2907f0000000000000000000000000000000000000000000000000000000000000000611b2e565b9392505050565b336000908152600260205260409020610bf3908383611710565b503373ffffffffffffffffffffffffffffffffffffffff167f249856326dc0fe2c794b9c0daafa35de121bec273c9253186c69197caa3407198383604051610c3c929190611ace565b60405180910390a25050565b33600090815260208190526040812090610c61826110ee565b905060008111610ccd576040517f08c379a000000000000000000000000000000000000000000000000000000000815260206004820152601360248201527f4e4f5f544f4b454e535f544f5f52454d4f56450000000000000000000000000060448201526064016103e1565b60008167ffffffffffffffff811115610ce857610ce8611d15565b604051908082528060200260200182016040528015610d11578160200160208202803683370190505b509050815b8015610db15780610d2681611bc6565b915060009050610d3685836110f8565b905080838381518110610d4b57610d4b611ce6565b73ffffffffffffffffffffffffffffffffffffffff90921660209283029190910190910152610d7a8582611231565b5073ffffffffffffffffffffffffffffffffffffffff81166000908152600160205260409020610daa9033611231565b5050610d16565b506000610dde837f0000000000000000000000000000000000000000000000000000000000000000611b46565b610e08907f0000000000000000000000000000000000000000000000000000000000000000611b2e565b60405190915033907f5145121d6af63d58cca25c9f269c9ba617dded29d84ffd18499436c7c21b3f2890600090a23373ffffffffffffffffffffffffffffffffffffffff167f4efa1188fb6a3db44946ac387489b6f4e29207ef0d603be528f374715258804583604051610e7c91906119f4565b60405180910390a28015610ecb57610ecb73ffffffffffffffffffffffffffffffffffffffff7f0000000000000000000000000000000000000000000000000000000000000000163383611253565b50505050565b60026020526000908152604090208054610eea90611bfb565b80601f0160208091040260200160405190810160405280929190818152602001828054610f1690611bfb565b8015610f635780601f10610f3857610100808354040283529160200191610f63565b820191906000526020600020905b815481529060010190602001808311610f4657829003601f168201915b505050505081565b6060818067ffffffffffffffff811115610f8757610f87611d15565b604051908082528060200260200182016040528015610fba57816020015b6060815260200190600190039081610fa55790505b50915060005b818110156110e65760026000868684818110610fde57610fde611ce6565b9050602002016020810190610ff391906117f0565b73ffffffffffffffffffffffffffffffffffffffff1673ffffffffffffffffffffffffffffffffffffffff168152602001908152602001600020805461103890611bfb565b80601f016020809104026020016040519081016040528092919081815260200182805461106490611bfb565b80156110b15780601f10611086576101008083540402835291602001916110b1565b820191906000526020600020905b81548152906001019060200180831161109457829003601f168201915b50505050508382815181106110c8576110c8611ce6565b602002602001018190525080806110de90611c4f565b915050610fc0565b505092915050565b6000610648825490565b600061064583836112ae565b60006106458373ffffffffffffffffffffffffffffffffffffffff84166112d8565b60405173ffffffffffffffffffffffffffffffffffffffff80851660248301528316604482015260648101829052610ecb9085907f23b872dd00000000000000000000000000000000000000000000000000000000906084015b604080517fffffffffffffffffffffffffffffffffffffffffffffffffffffffffffffffe08184030181529190526020810180517bffffffffffffffffffffffffffffffffffffffffffffffffffffffff167fffffffff0000000000000000000000000000000000000000000000000000000090931692909217909152611327565b73ffffffffffffffffffffffffffffffffffffffff811660009081526001830160205260408120541515610645565b60006106458373ffffffffffffffffffffffffffffffffffffffff8416611433565b60405173ffffffffffffffffffffffffffffffffffffffff83166024820152604481018290526112a99084907fa9059cbb0000000000000000000000000000000000000000000000000000000090606401611180565b505050565b60008260000182815481106112c5576112c5611ce6565b9060005260206000200154905092915050565b600081815260018301602052604081205461131f57508154600181810184556000848152602080822090930184905584548482528286019093526040902091909155610648565b506000610648565b6000611389826040518060400160405280602081526020017f5361666545524332303a206c6f772d6c6576656c2063616c6c206661696c65648152508573ffffffffffffffffffffffffffffffffffffffff166115269092919063ffffffff16565b8051909150156112a957808060200190518101906113a791906118b3565b6112a9576040517f08c379a000000000000000000000000000000000000000000000000000000000815260206004820152602a60248201527f5361666545524332303a204552433230206f7065726174696f6e20646964206e60448201527f6f7420737563636565640000000000000000000000000000000000000000000060648201526084016103e1565b6000818152600183016020526040812054801561151c576000611457600183611b83565b855490915060009061146b90600190611b83565b90508181146114d057600086600001828154811061148b5761148b611ce6565b90600052602060002001549050808760000184815481106114ae576114ae611ce6565b6000918252602080832090910192909255918252600188019052604090208390555b85548690806114e1576114e1611cb7565b600190038181906000526020600020016000905590558560010160008681526020019081526020016000206000905560019350505050610648565b6000915050610648565b6060611535848460008561153d565b949350505050565b6060824710156115cf576040517f08c379a000000000000000000000000000000000000000000000000000000000815260206004820152602660248201527f416464726573733a20696e73756666696369656e742062616c616e636520666f60448201527f722063616c6c000000000000000000000000000000000000000000000000000060648201526084016103e1565b843b611637576040517f08c379a000000000000000000000000000000000000000000000000000000000815260206004820152601d60248201527f416464726573733a2063616c6c20746f206e6f6e2d636f6e747261637400000060448201526064016103e1565b6000808673ffffffffffffffffffffffffffffffffffffffff168587604051611660919061197f565b60006040518083038185875af1925050503d806000811461169d576040519150601f19603f3d011682016040523d82523d6000602084013e6116a2565b606091505b50915091506116b28282866116bd565b979650505050505050565b606083156116cc575081610bd2565b8251156116dc5782518084602001fd5b816040517f08c379a00000000000000000000000000000000000000000000000000000000081526004016103e19190611b1b565b82805461171c90611bfb565b90600052602060002090601f01602090048101928261173e57600085556117a2565b82601f10611775578280017fffffffffffffffffffffffffffffffffffffffffffffffffffffffffffffff008235161785556117a2565b828001600101855582156117a2579182015b828111156117a2578235825591602001919060010190611787565b506117ae9291506117b2565b5090565b5b808211156117ae57600081556001016117b3565b803573ffffffffffffffffffffffffffffffffffffffff811681146117eb57600080fd5b919050565b60006020828403121561180257600080fd5b610645826117c7565b6000806040838503121561181e57600080fd5b611827836117c7565b9150611835602084016117c7565b90509250929050565b6000806020838503121561185157600080fd5b823567ffffffffffffffff8082111561186957600080fd5b818501915085601f83011261187d57600080fd5b81358181111561188c57600080fd5b8660208260051b85010111156118a157600080fd5b60209290920196919550909350505050565b6000602082840312156118c557600080fd5b81518015158114610bd257600080fd5b600080602083850312156118e857600080fd5b823567ffffffffffffffff8082111561190057600080fd5b818501915085601f83011261191457600080fd5b81358181111561192357600080fd5b8660208285010111156118a157600080fd5b6000815180845261194d816020860160208601611b9a565b601f017fffffffffffffffffffffffffffffffffffffffffffffffffffffffffffffffe0169290920160200192915050565b60008251611991818460208701611b9a565b9190910192915050565b60208082528181018390526000908460408401835b868110156119e95773ffffffffffffffffffffffffffffffffffffffff6119d6846117c7565b16825291830191908301906001016119b0565b509695505050505050565b6020808252825182820181905260009190848201906040850190845b81811015611a4257835173ffffffffffffffffffffffffffffffffffffffff1683529284019291840191600101611a10565b50909695505050505050565b6000602080830181845280855180835260408601915060408160051b870101925083870160005b82811015611ac1577fffffffffffffffffffffffffffffffffffffffffffffffffffffffffffffffc0888603018452611aaf858351611935565b94509285019290850190600101611a75565b5092979650505050505050565b60208152816020820152818360408301376000818301604090810191909152601f9092017fffffffffffffffffffffffffffffffffffffffffffffffffffffffffffffffe0160101919050565b6020815260006106456020830184611935565b60008219821115611b4157611b41611c88565b500190565b6000817fffffffffffffffffffffffffffffffffffffffffffffffffffffffffffffffff0483118215151615611b7e57611b7e611c88565b500290565b600082821015611b9557611b95611c88565b500390565b60005b83811015611bb5578181015183820152602001611b9d565b83811115610ecb5750506000910152565b600081611bd557611bd5611c88565b507fffffffffffffffffffffffffffffffffffffffffffffffffffffffffffffffff0190565b600181811c90821680611c0f57607f821691505b60208210811415611c49577f4e487b7100000000000000000000000000000000000000000000000000000000600052602260045260246000fd5b50919050565b60007fffffffffffffffffffffffffffffffffffffffffffffffffffffffffffffffff821415611c8157611c81611c88565b5060010190565b7f4e487b7100000000000000000000000000000000000000000000000000000000600052601160045260246000fd5b7f4e487b7100000000000000000000000000000000000000000000000000000000600052603160045260246000fd5b7f4e487b7100000000000000000000000000000000000000000000000000000000600052603260045260246000fd5b7f4e487b7100000000000000000000000000000000000000000000000000000000600052604160045260246000fdfea2646970667358221220de72c7c724e10ceb533b248587a65fc2c0e4725d80bb140c0da394db1ff93e5a64736f6c63430008070033",
  "linkReferences": {},
  "deployedLinkReferences": {}
}