{
  "_format": "hh-sol-artifact-1",
  "contractName": "Wrapper",
  "sourceName": "contracts/Wrapper.sol",
  "abi": [
    {
      "inputs": [
        {
          "internalType": "address",
          "name": "_swapContract",
          "type": "address"
        },
        {
          "internalType": "address",
          "name": "_wethContract",
          "type": "address"
        }
      ],
      "stateMutability": "nonpayable",
      "type": "constructor"
    },
    {
      "anonymous": false,
      "inputs": [
        {
          "indexed": true,
          "internalType": "address",
          "name": "previousOwner",
          "type": "address"
        },
        {
          "indexed": true,
          "internalType": "address",
          "name": "newOwner",
          "type": "address"
        }
      ],
      "name": "OwnershipTransferred",
      "type": "event"
    },
    {
      "anonymous": false,
      "inputs": [
        {
          "indexed": false,
          "internalType": "address",
          "name": "senderWallet",
          "type": "address"
        }
      ],
      "name": "WrappedSwapFor",
      "type": "event"
    },
    {
      "inputs": [
        {
          "internalType": "uint256",
          "name": "nonce",
          "type": "uint256"
        },
        {
          "internalType": "uint256",
          "name": "expiry",
          "type": "uint256"
        },
        {
          "internalType": "address",
          "name": "signerWallet",
          "type": "address"
        },
        {
          "internalType": "address",
          "name": "signerToken",
          "type": "address"
        },
        {
          "internalType": "uint256",
          "name": "signerID",
          "type": "uint256"
        },
        {
          "internalType": "address",
          "name": "senderToken",
          "type": "address"
        },
        {
          "internalType": "uint256",
          "name": "senderAmount",
          "type": "uint256"
        },
        {
          "internalType": "uint8",
          "name": "v",
          "type": "uint8"
        },
        {
          "internalType": "bytes32",
          "name": "r",
          "type": "bytes32"
        },
        {
          "internalType": "bytes32",
          "name": "s",
          "type": "bytes32"
        }
      ],
      "name": "buyNFT",
      "outputs": [],
      "stateMutability": "payable",
      "type": "function"
    },
    {
      "inputs": [],
      "name": "owner",
      "outputs": [
        {
          "internalType": "address",
          "name": "",
          "type": "address"
        }
      ],
      "stateMutability": "view",
      "type": "function"
    },
    {
      "inputs": [],
      "name": "renounceOwnership",
      "outputs": [],
      "stateMutability": "nonpayable",
      "type": "function"
    },
    {
      "inputs": [
        {
          "internalType": "uint256",
          "name": "nonce",
          "type": "uint256"
        },
        {
          "internalType": "uint256",
          "name": "expiry",
          "type": "uint256"
        },
        {
          "internalType": "address",
          "name": "signerWallet",
          "type": "address"
        },
        {
          "internalType": "address",
          "name": "signerToken",
          "type": "address"
        },
        {
          "internalType": "uint256",
          "name": "signerAmount",
          "type": "uint256"
        },
        {
          "internalType": "address",
          "name": "senderToken",
          "type": "address"
        },
        {
          "internalType": "uint256",
          "name": "senderID",
          "type": "uint256"
        },
        {
          "internalType": "uint8",
          "name": "v",
          "type": "uint8"
        },
        {
          "internalType": "bytes32",
          "name": "r",
          "type": "bytes32"
        },
        {
          "internalType": "bytes32",
          "name": "s",
          "type": "bytes32"
        }
      ],
      "name": "sellNFT",
      "outputs": [],
      "stateMutability": "nonpayable",
      "type": "function"
    },
    {
      "inputs": [
        {
          "internalType": "address",
          "name": "_swapContract",
          "type": "address"
        }
      ],
      "name": "setSwapContract",
      "outputs": [],
      "stateMutability": "nonpayable",
      "type": "function"
    },
    {
      "inputs": [
        {
          "internalType": "uint256",
          "name": "nonce",
          "type": "uint256"
        },
        {
          "internalType": "uint256",
          "name": "expiry",
          "type": "uint256"
        },
        {
          "internalType": "address",
          "name": "signerWallet",
          "type": "address"
        },
        {
          "internalType": "address",
          "name": "signerToken",
          "type": "address"
        },
        {
          "internalType": "uint256",
          "name": "signerAmount",
          "type": "uint256"
        },
        {
          "internalType": "address",
          "name": "senderToken",
          "type": "address"
        },
        {
          "internalType": "uint256",
          "name": "senderAmount",
          "type": "uint256"
        },
        {
          "internalType": "uint8",
          "name": "v",
          "type": "uint8"
        },
        {
          "internalType": "bytes32",
          "name": "r",
          "type": "bytes32"
        },
        {
          "internalType": "bytes32",
          "name": "s",
          "type": "bytes32"
        }
      ],
      "name": "swap",
      "outputs": [],
      "stateMutability": "payable",
      "type": "function"
    },
    {
      "inputs": [],
      "name": "swapContract",
      "outputs": [
        {
          "internalType": "contract ISwap",
          "name": "",
          "type": "address"
        }
      ],
      "stateMutability": "view",
      "type": "function"
    },
    {
      "inputs": [
        {
          "internalType": "address",
          "name": "newOwner",
          "type": "address"
        }
      ],
      "name": "transferOwnership",
      "outputs": [],
      "stateMutability": "nonpayable",
      "type": "function"
    },
    {
      "inputs": [],
      "name": "wethContract",
      "outputs": [
        {
          "internalType": "contract IWETH",
          "name": "",
          "type": "address"
        }
      ],
      "stateMutability": "view",
      "type": "function"
    },
    {
      "stateMutability": "payable",
      "type": "receive"
    }
  ],
  "bytecode": "0x60806040523480156200001157600080fd5b5060405162001a2c38038062001a2c833981016040819052620000349162000209565b6200003f336200019c565b6001600160a01b0382166200008e5760405162461bcd60e51b815260206004820152601060248201526f1253959053125117d0d3d395149050d560821b60448201526064015b60405180910390fd5b6001600160a01b038116620000e65760405162461bcd60e51b815260206004820152601560248201527f494e56414c49445f574554485f434f4e54524143540000000000000000000000604482015260640162000085565b600180546001600160a01b03199081166001600160a01b038581169182179093556002805490921692841692831790915560405163095ea7b360e01b81526004810191909152600019602482015263095ea7b390604401602060405180830381600087803b1580156200015857600080fd5b505af11580156200016d573d6000803e3d6000fd5b505050506040513d601f19601f8201168201806040525081019062000193919062000241565b5050506200026c565b600080546001600160a01b038381166001600160a01b0319831681178455604051919092169283917f8be0079c531659141344cd1fd0a4f28419497f9722a3daafe3b4186f6b6457e09190a35050565b80516001600160a01b03811681146200020457600080fd5b919050565b600080604083850312156200021d57600080fd5b6200022883620001ec565b91506200023860208401620001ec565b90509250929050565b6000602082840312156200025457600080fd5b815180151581146200026557600080fd5b9392505050565b6117b0806200027c6000396000f3fe60806040526004361061009a5760003560e01c80638da5cb5b116100695780638f8c57fe1161004e5780638f8c57fe14610222578063d259ab4214610235578063f2fde38b1461025557600080fd5b80638da5cb5b146101ca5780638ea83031146101f557600080fd5b8063431f76381461012c5780634780eac11461014c5780635dfde3e1146101a2578063715018a6146101b557600080fd5b366101275760025473ffffffffffffffffffffffffffffffffffffffff163314610125576040517f08c379a000000000000000000000000000000000000000000000000000000000815260206004820152601160248201527f444f5f4e4f545f53454e445f455448455200000000000000000000000000000060448201526064015b60405180910390fd5b005b600080fd5b34801561013857600080fd5b50610125610147366004611608565b610275565b34801561015857600080fd5b506002546101799073ffffffffffffffffffffffffffffffffffffffff1681565b60405173ffffffffffffffffffffffffffffffffffffffff909116815260200160405180910390f35b6101256101b0366004611608565b6104a3565b3480156101c157600080fd5b506101256106f9565b3480156101d657600080fd5b5060005473ffffffffffffffffffffffffffffffffffffffff16610179565b34801561020157600080fd5b506001546101799073ffffffffffffffffffffffffffffffffffffffff1681565b610125610230366004611608565b610786565b34801561024157600080fd5b506101256102503660046115b2565b610835565b34801561026157600080fd5b506101256102703660046115b2565b610ae0565b600180546040517fa22cb46500000000000000000000000000000000000000000000000000000000815273ffffffffffffffffffffffffffffffffffffffff9182166004820152602481019290925286169063a22cb46590604401600060405180830381600087803b1580156102ea57600080fd5b505af11580156102fe573d6000803e3d6000fd5b50506040517f23b872dd0000000000000000000000000000000000000000000000000000000081523360048201523060248201526044810187905273ffffffffffffffffffffffffffffffffffffffff881692506323b872dd9150606401600060405180830381600087803b15801561037657600080fd5b505af115801561038a573d6000803e3d6000fd5b50506001546040517f431f7638000000000000000000000000000000000000000000000000000000008152600481018e9052602481018d905273ffffffffffffffffffffffffffffffffffffffff8c811660448301528b81166064830152608482018b905289811660a483015260c4820189905260ff881660e483015261010482018790526101248201869052909116925063431f76389150610144015b600060405180830381600087803b15801561044257600080fd5b505af1158015610456573d6000803e3d6000fd5b505050506104648787610c10565b6040513381527ffea016aa64f1ac4f9ff3def1fcc04ce2c7f49fd11f1853856908c8152c411ac59060200160405180910390a150505050505050505050565b6001546040517f52c5f1f50000000000000000000000000000000000000000000000000000000081523360048201526024810186905260009173ffffffffffffffffffffffffffffffffffffffff16906352c5f1f59060440160206040518083038186803b15801561051457600080fd5b505afa158015610528573d6000803e3d6000fd5b505050506040513d601f19601f8201168201806040525081019061054c91906115ef565b90506105618661055c838861170f565b610d8f565b6001546040517f5dfde3e1000000000000000000000000000000000000000000000000000000008152600481018d9052602481018c905273ffffffffffffffffffffffffffffffffffffffff8b811660448301528a81166064830152608482018a905288811660a483015260c4820188905260ff871660e48301526101048201869052610124820185905290911690635dfde3e19061014401600060405180830381600087803b15801561061457600080fd5b505af1158015610628573d6000803e3d6000fd5b50506040517f23b872dd000000000000000000000000000000000000000000000000000000008152306004820152336024820152604481018a905273ffffffffffffffffffffffffffffffffffffffff8b1692506323b872dd9150606401600060405180830381600087803b1580156106a057600080fd5b505af11580156106b4573d6000803e3d6000fd5b50506040513381527ffea016aa64f1ac4f9ff3def1fcc04ce2c7f49fd11f1853856908c8152c411ac59250602001905060405180910390a15050505050505050505050565b60005473ffffffffffffffffffffffffffffffffffffffff16331461077a576040517f08c379a000000000000000000000000000000000000000000000000000000000815260206004820181905260248201527f4f776e61626c653a2063616c6c6572206973206e6f7420746865206f776e6572604482015260640161011c565b6107846000610f53565b565b6107908585610d8f565b6001546040517f98956069000000000000000000000000000000000000000000000000000000008152306004820152602481018c9052604481018b905273ffffffffffffffffffffffffffffffffffffffff8a81166064830152898116608483015260a4820189905287811660c483015260e4820187905260ff8616610104830152610124820185905261014482018490529091169063989560699061016401610428565b60005473ffffffffffffffffffffffffffffffffffffffff1633146108b6576040517f08c379a000000000000000000000000000000000000000000000000000000000815260206004820181905260248201527f4f776e61626c653a2063616c6c6572206973206e6f7420746865206f776e6572604482015260640161011c565b73ffffffffffffffffffffffffffffffffffffffff8116610933576040517f08c379a000000000000000000000000000000000000000000000000000000000815260206004820152601060248201527f494e56414c49445f434f4e545241435400000000000000000000000000000000604482015260640161011c565b6002546001546040517f095ea7b300000000000000000000000000000000000000000000000000000000815273ffffffffffffffffffffffffffffffffffffffff91821660048201526000602482015291169063095ea7b390604401602060405180830381600087803b1580156109a957600080fd5b505af11580156109bd573d6000803e3d6000fd5b505050506040513d601f19601f820116820180604052508101906109e191906115cd565b50600180547fffffffffffffffffffffffff00000000000000000000000000000000000000001673ffffffffffffffffffffffffffffffffffffffff8381169182179092556002546040517f095ea7b300000000000000000000000000000000000000000000000000000000815260048101929092527fffffffffffffffffffffffffffffffffffffffffffffffffffffffffffffffff60248301529091169063095ea7b390604401602060405180830381600087803b158015610aa457600080fd5b505af1158015610ab8573d6000803e3d6000fd5b505050506040513d601f19601f82011682018060405250810190610adc91906115cd565b5050565b60005473ffffffffffffffffffffffffffffffffffffffff163314610b61576040517f08c379a000000000000000000000000000000000000000000000000000000000815260206004820181905260248201527f4f776e61626c653a2063616c6c6572206973206e6f7420746865206f776e6572604482015260640161011c565b73ffffffffffffffffffffffffffffffffffffffff8116610c04576040517f08c379a000000000000000000000000000000000000000000000000000000000815260206004820152602660248201527f4f776e61626c653a206e6577206f776e657220697320746865207a65726f206160448201527f6464726573730000000000000000000000000000000000000000000000000000606482015260840161011c565b610c0d81610f53565b50565b60025473ffffffffffffffffffffffffffffffffffffffff83811691161415610d6e576002546040517f2e1a7d4d0000000000000000000000000000000000000000000000000000000081526004810183905273ffffffffffffffffffffffffffffffffffffffff90911690632e1a7d4d90602401600060405180830381600087803b158015610c9f57600080fd5b505af1158015610cb3573d6000803e3d6000fd5b50506040516000925033915083908381818185875af1925050503d8060008114610cf9576040519150601f19603f3d011682016040523d82523d6000602084013e610cfe565b606091505b5050905080610d69576040517f08c379a000000000000000000000000000000000000000000000000000000000815260206004820152601160248201527f4554485f52455455524e5f4641494c4544000000000000000000000000000000604482015260640161011c565b505050565b610adc73ffffffffffffffffffffffffffffffffffffffff83163383610fc8565b60025473ffffffffffffffffffffffffffffffffffffffff83811691161415610ea257348114610e1b576040517f08c379a000000000000000000000000000000000000000000000000000000000815260206004820152601260248201527f56414c55455f4d5553545f42455f53454e540000000000000000000000000000604482015260640161011c565b600260009054906101000a900473ffffffffffffffffffffffffffffffffffffffff1673ffffffffffffffffffffffffffffffffffffffff1663d0e30db0346040518263ffffffff1660e01b81526004016000604051808303818588803b158015610e8557600080fd5b505af1158015610e99573d6000803e3d6000fd5b50505050505050565b3415610f0a576040517f08c379a000000000000000000000000000000000000000000000000000000000815260206004820152601260248201527f56414c55455f4d5553545f42455f5a45524f0000000000000000000000000000604482015260640161011c565b600154610f319073ffffffffffffffffffffffffffffffffffffffff84811691168361109c565b610adc73ffffffffffffffffffffffffffffffffffffffff831633308461122d565b6000805473ffffffffffffffffffffffffffffffffffffffff8381167fffffffffffffffffffffffff0000000000000000000000000000000000000000831681178455604051919092169283917f8be0079c531659141344cd1fd0a4f28419497f9722a3daafe3b4186f6b6457e09190a35050565b60405173ffffffffffffffffffffffffffffffffffffffff8316602482015260448101829052610d699084907fa9059cbb00000000000000000000000000000000000000000000000000000000906064015b604080517fffffffffffffffffffffffffffffffffffffffffffffffffffffffffffffffe08184030181529190526020810180517bffffffffffffffffffffffffffffffffffffffffffffffffffffffff167fffffffff0000000000000000000000000000000000000000000000000000000090931692909217909152611291565b80158061114b57506040517fdd62ed3e00000000000000000000000000000000000000000000000000000000815230600482015273ffffffffffffffffffffffffffffffffffffffff838116602483015284169063dd62ed3e9060440160206040518083038186803b15801561111157600080fd5b505afa158015611125573d6000803e3d6000fd5b505050506040513d601f19601f8201168201806040525081019061114991906115ef565b155b6111d7576040517f08c379a000000000000000000000000000000000000000000000000000000000815260206004820152603660248201527f5361666545524332303a20617070726f76652066726f6d206e6f6e2d7a65726f60448201527f20746f206e6f6e2d7a65726f20616c6c6f77616e636500000000000000000000606482015260840161011c565b60405173ffffffffffffffffffffffffffffffffffffffff8316602482015260448101829052610d699084907f095ea7b3000000000000000000000000000000000000000000000000000000009060640161101a565b60405173ffffffffffffffffffffffffffffffffffffffff8085166024830152831660448201526064810182905261128b9085907f23b872dd000000000000000000000000000000000000000000000000000000009060840161101a565b50505050565b60006112f3826040518060400160405280602081526020017f5361666545524332303a206c6f772d6c6576656c2063616c6c206661696c65648152508573ffffffffffffffffffffffffffffffffffffffff1661139d9092919063ffffffff16565b805190915015610d69578080602001905181019061131191906115cd565b610d69576040517f08c379a000000000000000000000000000000000000000000000000000000000815260206004820152602a60248201527f5361666545524332303a204552433230206f7065726174696f6e20646964206e60448201527f6f74207375636365656400000000000000000000000000000000000000000000606482015260840161011c565b60606113ac84846000856113b6565b90505b9392505050565b606082471015611448576040517f08c379a000000000000000000000000000000000000000000000000000000000815260206004820152602660248201527f416464726573733a20696e73756666696369656e742062616c616e636520666f60448201527f722063616c6c0000000000000000000000000000000000000000000000000000606482015260840161011c565b843b6114b0576040517f08c379a000000000000000000000000000000000000000000000000000000000815260206004820152601d60248201527f416464726573733a2063616c6c20746f206e6f6e2d636f6e7472616374000000604482015260640161011c565b6000808673ffffffffffffffffffffffffffffffffffffffff1685876040516114d991906116a2565b60006040518083038185875af1925050503d8060008114611516576040519150601f19603f3d011682016040523d82523d6000602084013e61151b565b606091505b509150915061152b828286611536565b979650505050505050565b606083156115455750816113af565b8251156115555782518084602001fd5b816040517f08c379a000000000000000000000000000000000000000000000000000000000815260040161011c91906116be565b803573ffffffffffffffffffffffffffffffffffffffff811681146115ad57600080fd5b919050565b6000602082840312156115c457600080fd5b6113af82611589565b6000602082840312156115df57600080fd5b815180151581146113af57600080fd5b60006020828403121561160157600080fd5b5051919050565b6000806000806000806000806000806101408b8d03121561162857600080fd5b8a35995060208b0135985061163f60408c01611589565b975061164d60608c01611589565b965060808b0135955061166260a08c01611589565b945060c08b0135935060e08b013560ff8116811461167f57600080fd5b809350506101008b013591506101208b013590509295989b9194979a5092959850565b600082516116b481846020870161174e565b9190910192915050565b60208152600082518060208401526116dd81604085016020870161174e565b601f017fffffffffffffffffffffffffffffffffffffffffffffffffffffffffffffffe0169190910160400192915050565b60008219821115611749577f4e487b7100000000000000000000000000000000000000000000000000000000600052601160045260246000fd5b500190565b60005b83811015611769578181015183820152602001611751565b8381111561128b575050600091015256fea264697066735822122063a83e58a3b47c5ac23c92363adc526e6420e33df724a9dcbe332c844bcea35a64736f6c63430008070033",
  "linkReferences": {},
  "deployedLinkReferences": {}
}