{
  "_format": "hh-sol-artifact-1",
  "contractName": "Staking",
  "sourceName": "contracts/Staking.sol",
  "abi": [
    {
      "inputs": [
        {
          "internalType": "contract ERC20",
          "name": "_token",
          "type": "address"
        },
        {
          "internalType": "string",
          "name": "_name",
          "type": "string"
        },
        {
          "internalType": "string",
          "name": "_symbol",
          "type": "string"
        },
        {
          "internalType": "uint256",
          "name": "_duration",
          "type": "uint256"
        },
        {
          "internalType": "uint256",
          "name": "_minDelay",
          "type": "uint256"
        }
      ],
      "stateMutability": "nonpayable",
      "type": "constructor"
    },
    {
      "anonymous": false,
      "inputs": [],
      "name": "CancelDurationChange",
      "type": "event"
    },
    {
      "anonymous": false,
      "inputs": [
        {
          "indexed": true,
          "internalType": "uint256",
          "name": "newDuration",
          "type": "uint256"
        }
      ],
      "name": "CompleteDurationChange",
      "type": "event"
    },
    {
      "anonymous": false,
      "inputs": [
        {
          "indexed": true,
          "internalType": "address",
          "name": "previousOwner",
          "type": "address"
        },
        {
          "indexed": true,
          "internalType": "address",
          "name": "newOwner",
          "type": "address"
        }
      ],
      "name": "OwnershipTransferred",
      "type": "event"
    },
    {
      "anonymous": false,
      "inputs": [
        {
          "indexed": true,
          "internalType": "address",
          "name": "delegate",
          "type": "address"
        },
        {
          "indexed": true,
          "internalType": "address",
          "name": "account",
          "type": "address"
        }
      ],
      "name": "ProposeDelegate",
      "type": "event"
    },
    {
      "anonymous": false,
      "inputs": [
        {
          "indexed": true,
          "internalType": "uint256",
          "name": "unlockTimestamp",
          "type": "uint256"
        }
      ],
      "name": "ScheduleDurationChange",
      "type": "event"
    },
    {
      "anonymous": false,
      "inputs": [
        {
          "indexed": true,
          "internalType": "address",
          "name": "delegate",
          "type": "address"
        },
        {
          "indexed": true,
          "internalType": "address",
          "name": "account",
          "type": "address"
        }
      ],
      "name": "SetDelegate",
      "type": "event"
    },
    {
      "anonymous": false,
      "inputs": [
        {
          "indexed": true,
          "internalType": "address",
          "name": "from",
          "type": "address"
        },
        {
          "indexed": true,
          "internalType": "address",
          "name": "to",
          "type": "address"
        },
        {
          "indexed": false,
          "internalType": "uint256",
          "name": "tokens",
          "type": "uint256"
        }
      ],
      "name": "Transfer",
      "type": "event"
    },
    {
      "inputs": [
        {
          "internalType": "address",
          "name": "",
          "type": "address"
        }
      ],
      "name": "accountDelegates",
      "outputs": [
        {
          "internalType": "address",
          "name": "",
          "type": "address"
        }
      ],
      "stateMutability": "view",
      "type": "function"
    },
    {
      "inputs": [
        {
          "internalType": "address",
          "name": "account",
          "type": "address"
        }
      ],
      "name": "available",
      "outputs": [
        {
          "internalType": "uint256",
          "name": "",
          "type": "uint256"
        }
      ],
      "stateMutability": "view",
      "type": "function"
    },
    {
      "inputs": [
        {
          "internalType": "address",
          "name": "account",
          "type": "address"
        }
      ],
      "name": "balanceOf",
      "outputs": [
        {
          "internalType": "uint256",
          "name": "total",
          "type": "uint256"
        }
      ],
      "stateMutability": "view",
      "type": "function"
    },
    {
      "inputs": [],
      "name": "cancelDurationChange",
      "outputs": [],
      "stateMutability": "nonpayable",
      "type": "function"
    },
    {
      "inputs": [],
      "name": "decimals",
      "outputs": [
        {
          "internalType": "uint8",
          "name": "",
          "type": "uint8"
        }
      ],
      "stateMutability": "view",
      "type": "function"
    },
    {
      "inputs": [
        {
          "internalType": "address",
          "name": "",
          "type": "address"
        }
      ],
      "name": "delegateAccounts",
      "outputs": [
        {
          "internalType": "address",
          "name": "",
          "type": "address"
        }
      ],
      "stateMutability": "view",
      "type": "function"
    },
    {
      "inputs": [],
      "name": "duration",
      "outputs": [
        {
          "internalType": "uint256",
          "name": "",
          "type": "uint256"
        }
      ],
      "stateMutability": "view",
      "type": "function"
    },
    {
      "inputs": [
        {
          "internalType": "address",
          "name": "account",
          "type": "address"
        }
      ],
      "name": "getStakes",
      "outputs": [
        {
          "components": [
            {
              "internalType": "uint256",
              "name": "duration",
              "type": "uint256"
            },
            {
              "internalType": "uint256",
              "name": "balance",
              "type": "uint256"
            },
            {
              "internalType": "uint256",
              "name": "timestamp",
              "type": "uint256"
            }
          ],
          "internalType": "struct IStaking.Stake",
          "name": "accountStake",
          "type": "tuple"
        }
      ],
      "stateMutability": "view",
      "type": "function"
    },
    {
      "inputs": [],
      "name": "name",
      "outputs": [
        {
          "internalType": "string",
          "name": "",
          "type": "string"
        }
      ],
      "stateMutability": "view",
      "type": "function"
    },
    {
      "inputs": [],
      "name": "owner",
      "outputs": [
        {
          "internalType": "address",
          "name": "",
          "type": "address"
        }
      ],
      "stateMutability": "view",
      "type": "function"
    },
    {
      "inputs": [
        {
          "internalType": "address",
          "name": "delegate",
          "type": "address"
        }
      ],
      "name": "proposeDelegate",
      "outputs": [],
      "stateMutability": "nonpayable",
      "type": "function"
    },
    {
      "inputs": [
        {
          "internalType": "address",
          "name": "",
          "type": "address"
        }
      ],
      "name": "proposedDelegates",
      "outputs": [
        {
          "internalType": "address",
          "name": "",
          "type": "address"
        }
      ],
      "stateMutability": "view",
      "type": "function"
    },
    {
      "inputs": [],
      "name": "renounceOwnership",
      "outputs": [],
      "stateMutability": "nonpayable",
      "type": "function"
    },
    {
      "inputs": [
        {
          "internalType": "uint256",
          "name": "delay",
          "type": "uint256"
        }
      ],
      "name": "scheduleDurationChange",
      "outputs": [],
      "stateMutability": "nonpayable",
      "type": "function"
    },
    {
      "inputs": [
        {
          "internalType": "address",
          "name": "account",
          "type": "address"
        }
      ],
      "name": "setDelegate",
      "outputs": [],
      "stateMutability": "nonpayable",
      "type": "function"
    },
    {
      "inputs": [
        {
          "internalType": "uint256",
          "name": "_duration",
          "type": "uint256"
        }
      ],
      "name": "setDuration",
      "outputs": [],
      "stateMutability": "nonpayable",
      "type": "function"
    },
    {
      "inputs": [
        {
          "internalType": "string",
          "name": "_name",
          "type": "string"
        },
        {
          "internalType": "string",
          "name": "_symbol",
          "type": "string"
        }
      ],
      "name": "setMetaData",
      "outputs": [],
      "stateMutability": "nonpayable",
      "type": "function"
    },
    {
      "inputs": [
        {
          "internalType": "uint256",
          "name": "amount",
          "type": "uint256"
        }
      ],
      "name": "stake",
      "outputs": [],
      "stateMutability": "nonpayable",
      "type": "function"
    },
    {
      "inputs": [
        {
          "internalType": "address",
          "name": "account",
          "type": "address"
        },
        {
          "internalType": "uint256",
          "name": "amount",
          "type": "uint256"
        }
      ],
      "name": "stakeFor",
      "outputs": [],
      "stateMutability": "nonpayable",
      "type": "function"
    },
    {
      "inputs": [],
      "name": "symbol",
      "outputs": [
        {
          "internalType": "string",
          "name": "",
          "type": "string"
        }
      ],
      "stateMutability": "view",
      "type": "function"
    },
    {
      "inputs": [],
      "name": "token",
      "outputs": [
        {
          "internalType": "contract ERC20",
          "name": "",
          "type": "address"
        }
      ],
      "stateMutability": "view",
      "type": "function"
    },
    {
      "inputs": [],
      "name": "totalSupply",
      "outputs": [
        {
          "internalType": "uint256",
          "name": "",
          "type": "uint256"
        }
      ],
      "stateMutability": "view",
      "type": "function"
    },
    {
      "inputs": [
        {
          "internalType": "address",
          "name": "newOwner",
          "type": "address"
        }
      ],
      "name": "transferOwnership",
      "outputs": [],
      "stateMutability": "nonpayable",
      "type": "function"
    },
    {
      "inputs": [
        {
          "internalType": "address",
          "name": "delegate",
          "type": "address"
        }
      ],
      "name": "unsetDelegate",
      "outputs": [],
      "stateMutability": "nonpayable",
      "type": "function"
    },
    {
      "inputs": [
        {
          "internalType": "uint256",
          "name": "amount",
          "type": "uint256"
        }
      ],
      "name": "unstake",
      "outputs": [],
      "stateMutability": "nonpayable",
      "type": "function"
    }
  ],
  "bytecode": "0x60a06040523480156200001157600080fd5b50604051620025203803806200252083398101604081905262000034916200023d565b6200003f3362000090565b6001600160601b0319606086901b16608052835162000066906008906020870190620000e0565b5082516200007c906009906020860190620000e0565b50600191909155600255506200032d915050565b600080546001600160a01b038381166001600160a01b0319831681178455604051919092169283917f8be0079c531659141344cd1fd0a4f28419497f9722a3daafe3b4186f6b6457e09190a35050565b828054620000ee90620002da565b90600052602060002090601f0160209004810192826200011257600085556200015d565b82601f106200012d57805160ff19168380011785556200015d565b828001600101855582156200015d579182015b828111156200015d57825182559160200191906001019062000140565b506200016b9291506200016f565b5090565b5b808211156200016b576000815560010162000170565b600082601f8301126200019857600080fd5b81516001600160401b0380821115620001b557620001b562000317565b604051601f8301601f19908116603f01168101908282118183101715620001e057620001e062000317565b81604052838152602092508683858801011115620001fd57600080fd5b600091505b8382101562000221578582018301518183018401529082019062000202565b83821115620002335760008385830101525b9695505050505050565b600080600080600060a086880312156200025657600080fd5b85516001600160a01b03811681146200026e57600080fd5b60208701519095506001600160401b03808211156200028c57600080fd5b6200029a89838a0162000186565b95506040880151915080821115620002b157600080fd5b50620002c08882890162000186565b606088015160809098015196999598509695949350505050565b600181811c90821680620002ef57607f821691505b602082108114156200031157634e487b7160e01b600052602260045260246000fd5b50919050565b634e487b7160e01b600052604160045260246000fd5b60805160601c6121b86200036860003960008181610442015281816105df0152818161088a0152818161091601526118b501526121b86000f3fe608060405234801561001057600080fd5b50600436106101a35760003560e01c80637ba6f458116100ee5780639ef682d211610097578063ca5eb5e111610071578063ca5eb5e114610404578063f2fde38b14610417578063f6be71d11461042a578063fc0c546a1461043d57600080fd5b80639ef682d2146103d6578063a694fc3a146103de578063bb2c4100146103f157600080fd5b80638f2318cb116100c85780638f2318cb1461038557806395d89b41146103bb57806396dcfbe1146103c357600080fd5b80637ba6f4581461031f578063826b971e146103545780638da5cb5b1461036757600080fd5b806320aaba3b11610150578063313ce5671161012a578063313ce567146102c457806370a08231146102de578063715018a61461031757600080fd5b806320aaba3b146102895780632e17de781461029e5780632ee40908146102b157600080fd5b806310098ad51161018157806310098ad51461023857806313838a021461024b57806318160ddd1461028157600080fd5b806306fdde03146101a85780630b608fcb146101c65780630fb5a6b414610221575b600080fd5b6101b0610464565b6040516101bd9190611fac565b60405180910390f35b6101fc6101d4366004611e70565b60056020526000908152604090205473ffffffffffffffffffffffffffffffffffffffff1681565b60405173ffffffffffffffffffffffffffffffffffffffff90911681526020016101bd565b61022a60015481565b6040519081526020016101bd565b61022a610246366004611e70565b6104f2565b6101fc610259366004611e70565b60076020526000908152604090205473ffffffffffffffffffffffffffffffffffffffff1681565b61022a6105ae565b61029c610297366004611f3b565b610673565b005b61029c6102ac366004611f3b565b61080a565b61029c6102bf366004611e8b565b610904565b6102cc610912565b60405160ff90911681526020016101bd565b61022a6102ec366004611e70565b73ffffffffffffffffffffffffffffffffffffffff1660009081526004602052604090206001015490565b61029c6109b2565b61033261032d366004611e70565b610a3f565b60408051825181526020808401519082015291810151908201526060016101bd565b61029c610362366004611e70565b610ab2565b60005473ffffffffffffffffffffffffffffffffffffffff166101fc565b6101fc610393366004611e70565b60066020526000908152604090205473ffffffffffffffffffffffffffffffffffffffff1681565b6101b0610ba9565b61029c6103d1366004611e70565b610bb6565b61029c610ddd565b61029c6103ec366004611f3b565b610efa565b61029c6103ff366004611ed7565b610f62565b61029c610412366004611e70565b61100f565b61029c610425366004611e70565b611248565b61029c610438366004611f3b565b611375565b6101fc7f000000000000000000000000000000000000000000000000000000000000000081565b60088054610471906120d0565b80601f016020809104026020016040519081016040528092919081815260200182805461049d906120d0565b80156104ea5780601f106104bf576101008083540402835291602001916104ea565b820191906000526020600020905b8154815290600101906020018083116104cd57829003601f168201915b505050505081565b73ffffffffffffffffffffffffffffffffffffffff811660009081526004602052604081208054600182015460028301548492610547929091610541919061053b90429061156c565b90611578565b90611584565b73ffffffffffffffffffffffffffffffffffffffff851660009081526004602052604090206001015490915081106105a75750505073ffffffffffffffffffffffffffffffffffffffff1660009081526004602052604090206001015490565b9392505050565b6040517f70a082310000000000000000000000000000000000000000000000000000000081523060048201526000907f000000000000000000000000000000000000000000000000000000000000000073ffffffffffffffffffffffffffffffffffffffff16906370a082319060240160206040518083038186803b15801561063657600080fd5b505afa15801561064a573d6000803e3d6000fd5b505050506040513d601f19601f8201168201806040525081019061066e9190611f54565b905090565b60005473ffffffffffffffffffffffffffffffffffffffff1633146106f9576040517f08c379a000000000000000000000000000000000000000000000000000000000815260206004820181905260248201527f4f776e61626c653a2063616c6c6572206973206e6f7420746865206f776e657260448201526064015b60405180910390fd5b60035415610763576040517f08c379a000000000000000000000000000000000000000000000000000000000815260206004820152600f60248201527f54494d454c4f434b5f414354495645000000000000000000000000000000000060448201526064016106f0565b6002548110156107cf576040517f08c379a000000000000000000000000000000000000000000000000000000000815260206004820152600d60248201527f494e56414c49445f44454c41590000000000000000000000000000000000000060448201526064016106f0565b6107d98142611ffd565b60038190556040517fcc9639622b55ca018b582dcb9c5bd8a8b47f8f32969c91fbf2b8184b5abc4a5590600090a250565b3360009081526007602052604081205473ffffffffffffffffffffffffffffffffffffffff1661083c57503380610865565b503360009081526007602052604090205473ffffffffffffffffffffffffffffffffffffffff16805b506108708183611590565b6108b173ffffffffffffffffffffffffffffffffffffffff7f0000000000000000000000000000000000000000000000000000000000000000168284611640565b60405182815260009073ffffffffffffffffffffffffffffffffffffffff8316907fddf252ad1be2c89b69c2b068fc378daa952ba7f163c4a11628f55a4df523b3ef906020015b60405180910390a35050565b61090e8282611714565b5050565b60007f000000000000000000000000000000000000000000000000000000000000000073ffffffffffffffffffffffffffffffffffffffff1663313ce5676040518163ffffffff1660e01b815260040160206040518083038186803b15801561097a57600080fd5b505afa15801561098e573d6000803e3d6000fd5b505050506040513d601f19601f8201168201806040525081019061066e9190611f6d565b60005473ffffffffffffffffffffffffffffffffffffffff163314610a33576040517f08c379a000000000000000000000000000000000000000000000000000000000815260206004820181905260248201527f4f776e61626c653a2063616c6c6572206973206e6f7420746865206f776e657260448201526064016106f0565b610a3d6000611928565b565b610a6360405180606001604052806000815260200160008152602001600081525090565b5073ffffffffffffffffffffffffffffffffffffffff16600090815260046020908152604091829020825160608101845281548152600182015492810192909252600201549181019190915290565b3360009081526006602052604090205473ffffffffffffffffffffffffffffffffffffffff828116911614610b43576040517f08c379a000000000000000000000000000000000000000000000000000000000815260206004820152601060248201527f44454c45474154455f4e4f545f5345540000000000000000000000000000000060448201526064016106f0565b33600090815260066020908152604080832080547fffffffffffffffffffffffff000000000000000000000000000000000000000090811690915573ffffffffffffffffffffffffffffffffffffffff9490941683526007909152902080549091169055565b60098054610471906120d0565b3360009081526006602052604090205473ffffffffffffffffffffffffffffffffffffffff1615610c43576040517f08c379a000000000000000000000000000000000000000000000000000000000815260206004820152601360248201527f53454e4445525f4841535f44454c45474154450000000000000000000000000060448201526064016106f0565b73ffffffffffffffffffffffffffffffffffffffff8181166000908152600760205260409020541615610cd2576040517f08c379a000000000000000000000000000000000000000000000000000000000815260206004820152601160248201527f44454c45474154455f49535f54414b454e00000000000000000000000000000060448201526064016106f0565b73ffffffffffffffffffffffffffffffffffffffff811660009081526004602052604090206001015415610d62576040517f08c379a000000000000000000000000000000000000000000000000000000000815260206004820152601b60248201527f44454c45474154455f4d5553545f4e4f545f42455f5354414b4544000000000060448201526064016106f0565b3360008181526005602052604080822080547fffffffffffffffffffffffff00000000000000000000000000000000000000001673ffffffffffffffffffffffffffffffffffffffff8616908117909155905190917fd5388fcc11aaa0f0c97ea8ce8d23d27b5513ec37f3c925cb9cb7d3a23e7efd4991a350565b60005473ffffffffffffffffffffffffffffffffffffffff163314610e5e576040517f08c379a000000000000000000000000000000000000000000000000000000000815260206004820181905260248201527f4f776e61626c653a2063616c6c6572206973206e6f7420746865206f776e657260448201526064016106f0565b600060035411610eca576040517f08c379a000000000000000000000000000000000000000000000000000000000815260206004820152601160248201527f54494d454c4f434b5f494e41435449564500000000000000000000000000000060448201526064016106f0565b600060038190556040517fad9f24488dd2d4f821fcb2c503fa6446ff04bb2036760f06261fdb4cf6bd07e99190a1565b3360009081526007602052604090205473ffffffffffffffffffffffffffffffffffffffff1615610f585733600090815260076020526040902054610f559073ffffffffffffffffffffffffffffffffffffffff1682611714565b50565b610f553382611714565b60005473ffffffffffffffffffffffffffffffffffffffff163314610fe3576040517f08c379a000000000000000000000000000000000000000000000000000000000815260206004820181905260248201527f4f776e61626c653a2063616c6c6572206973206e6f7420746865206f776e657260448201526064016106f0565b8151610ff6906008906020850190611d03565b50805161100a906009906020840190611d03565b505050565b73ffffffffffffffffffffffffffffffffffffffff81811660009081526005602052604090205416331461109f576040517f08c379a000000000000000000000000000000000000000000000000000000000815260206004820152601060248201527f4d5553545f42455f50524f504f5345440000000000000000000000000000000060448201526064016106f0565b3360009081526007602052604090205473ffffffffffffffffffffffffffffffffffffffff161561112c576040517f08c379a000000000000000000000000000000000000000000000000000000000815260206004820152601160248201527f44454c45474154455f49535f54414b454e00000000000000000000000000000060448201526064016106f0565b33600090815260046020526040902060010154156111a6576040517f08c379a000000000000000000000000000000000000000000000000000000000815260206004820152601b60248201527f44454c45474154455f4d5553545f4e4f545f42455f5354414b4544000000000060448201526064016106f0565b73ffffffffffffffffffffffffffffffffffffffff811660008181526006602090815260408083208054337fffffffffffffffffffffffff00000000000000000000000000000000000000009182168117909255818552600784528285208054821687179055858552600590935281842080549093169092555190917fbeebfeebc9d1af8057ca45af36b2171fea34cb5b251e394f0bc5fcabde119d7f91a350565b60005473ffffffffffffffffffffffffffffffffffffffff1633146112c9576040517f08c379a000000000000000000000000000000000000000000000000000000000815260206004820181905260248201527f4f776e61626c653a2063616c6c6572206973206e6f7420746865206f776e657260448201526064016106f0565b73ffffffffffffffffffffffffffffffffffffffff811661136c576040517f08c379a000000000000000000000000000000000000000000000000000000000815260206004820152602660248201527f4f776e61626c653a206e6577206f776e657220697320746865207a65726f206160448201527f646472657373000000000000000000000000000000000000000000000000000060648201526084016106f0565b610f5581611928565b60005473ffffffffffffffffffffffffffffffffffffffff1633146113f6576040517f08c379a000000000000000000000000000000000000000000000000000000000815260206004820181905260248201527f4f776e61626c653a2063616c6c6572206973206e6f7420746865206f776e657260448201526064016106f0565b8061145d576040517f08c379a000000000000000000000000000000000000000000000000000000000815260206004820152601060248201527f4455524154494f4e5f494e56414c49440000000000000000000000000000000060448201526064016106f0565b6000600354116114c9576040517f08c379a000000000000000000000000000000000000000000000000000000000815260206004820152601160248201527f54494d454c4f434b5f494e41435449564500000000000000000000000000000060448201526064016106f0565b600354421015611535576040517f08c379a000000000000000000000000000000000000000000000000000000000815260206004820152600a60248201527f54494d454c4f434b45440000000000000000000000000000000000000000000060448201526064016106f0565b60018190556000600381905560405182917fa04d5e1ae3fd486b4c476203b016b4b63ba9743beaa99775851ed2f588c955bb91a250565b60006105a7828461208d565b60006105a78284612050565b60006105a78284612015565b73ffffffffffffffffffffffffffffffffffffffff821660009081526004602052604090206115be836104f2565b821115611627576040517f08c379a000000000000000000000000000000000000000000000000000000000815260206004820152601860248201527f414d4f554e545f455843454544535f415641494c41424c45000000000000000060448201526064016106f0565b6001810154611636908361156c565b6001909101555050565b60405173ffffffffffffffffffffffffffffffffffffffff831660248201526044810182905261100a9084907fa9059cbb00000000000000000000000000000000000000000000000000000000906064015b604080517fffffffffffffffffffffffffffffffffffffffffffffffffffffffffffffffe08184030181529190526020810180517bffffffffffffffffffffffffffffffffffffffffffffffffffffffff167fffffffff000000000000000000000000000000000000000000000000000000009093169290921790915261199d565b6000811161177e576040517f08c379a000000000000000000000000000000000000000000000000000000000815260206004820152600e60248201527f414d4f554e545f494e56414c494400000000000000000000000000000000000060448201526064016106f0565b6001805473ffffffffffffffffffffffffffffffffffffffff8416600090815260046020526040902090815501546117e85773ffffffffffffffffffffffffffffffffffffffff82166000908152600460205260409020600181018290554260029091015561189b565b60006117f3836104f2565b73ffffffffffffffffffffffffffffffffffffffff84166000908152600460205260409020600101549091506118299083611aa9565b73ffffffffffffffffffffffffffffffffffffffff8416600090815260046020526040902060018101829055546118709161186991610541908590611578565b429061156c565b73ffffffffffffffffffffffffffffffffffffffff8416600090815260046020526040902060020155505b6118dd73ffffffffffffffffffffffffffffffffffffffff7f000000000000000000000000000000000000000000000000000000000000000016333084611ab5565b60405181815273ffffffffffffffffffffffffffffffffffffffff8316906000907fddf252ad1be2c89b69c2b068fc378daa952ba7f163c4a11628f55a4df523b3ef906020016108f8565b6000805473ffffffffffffffffffffffffffffffffffffffff8381167fffffffffffffffffffffffff0000000000000000000000000000000000000000831681178455604051919092169283917f8be0079c531659141344cd1fd0a4f28419497f9722a3daafe3b4186f6b6457e09190a35050565b60006119ff826040518060400160405280602081526020017f5361666545524332303a206c6f772d6c6576656c2063616c6c206661696c65648152508573ffffffffffffffffffffffffffffffffffffffff16611b199092919063ffffffff16565b80519091501561100a5780806020019051810190611a1d9190611eb5565b61100a576040517f08c379a000000000000000000000000000000000000000000000000000000000815260206004820152602a60248201527f5361666545524332303a204552433230206f7065726174696f6e20646964206e60448201527f6f7420737563636565640000000000000000000000000000000000000000000060648201526084016106f0565b60006105a78284611ffd565b60405173ffffffffffffffffffffffffffffffffffffffff80851660248301528316604482015260648101829052611b139085907f23b872dd0000000000000000000000000000000000000000000000000000000090608401611692565b50505050565b6060611b288484600085611b30565b949350505050565b606082471015611bc2576040517f08c379a000000000000000000000000000000000000000000000000000000000815260206004820152602660248201527f416464726573733a20696e73756666696369656e742062616c616e636520666f60448201527f722063616c6c000000000000000000000000000000000000000000000000000060648201526084016106f0565b843b611c2a576040517f08c379a000000000000000000000000000000000000000000000000000000000815260206004820152601d60248201527f416464726573733a2063616c6c20746f206e6f6e2d636f6e747261637400000060448201526064016106f0565b6000808673ffffffffffffffffffffffffffffffffffffffff168587604051611c539190611f90565b60006040518083038185875af1925050503d8060008114611c90576040519150601f19603f3d011682016040523d82523d6000602084013e611c95565b606091505b5091509150611ca5828286611cb0565b979650505050505050565b60608315611cbf5750816105a7565b825115611ccf5782518084602001fd5b816040517f08c379a00000000000000000000000000000000000000000000000000000000081526004016106f09190611fac565b828054611d0f906120d0565b90600052602060002090601f016020900481019282611d315760008555611d77565b82601f10611d4a57805160ff1916838001178555611d77565b82800160010185558215611d77579182015b82811115611d77578251825591602001919060010190611d5c565b50611d83929150611d87565b5090565b5b80821115611d835760008155600101611d88565b803573ffffffffffffffffffffffffffffffffffffffff81168114611dc057600080fd5b919050565b600082601f830112611dd657600080fd5b813567ffffffffffffffff80821115611df157611df1612153565b604051601f83017fffffffffffffffffffffffffffffffffffffffffffffffffffffffffffffffe0908116603f01168101908282118183101715611e3757611e37612153565b81604052838152866020858801011115611e5057600080fd5b836020870160208301376000602085830101528094505050505092915050565b600060208284031215611e8257600080fd5b6105a782611d9c565b60008060408385031215611e9e57600080fd5b611ea783611d9c565b946020939093013593505050565b600060208284031215611ec757600080fd5b815180151581146105a757600080fd5b60008060408385031215611eea57600080fd5b823567ffffffffffffffff80821115611f0257600080fd5b611f0e86838701611dc5565b93506020850135915080821115611f2457600080fd5b50611f3185828601611dc5565b9150509250929050565b600060208284031215611f4d57600080fd5b5035919050565b600060208284031215611f6657600080fd5b5051919050565b600060208284031215611f7f57600080fd5b815160ff811681146105a757600080fd5b60008251611fa28184602087016120a4565b9190910192915050565b6020815260008251806020840152611fcb8160408501602087016120a4565b601f017fffffffffffffffffffffffffffffffffffffffffffffffffffffffffffffffe0169190910160400192915050565b6000821982111561201057612010612124565b500190565b60008261204b577f4e487b7100000000000000000000000000000000000000000000000000000000600052601260045260246000fd5b500490565b6000817fffffffffffffffffffffffffffffffffffffffffffffffffffffffffffffffff048311821515161561208857612088612124565b500290565b60008282101561209f5761209f612124565b500390565b60005b838110156120bf5781810151838201526020016120a7565b83811115611b135750506000910152565b600181811c908216806120e457607f821691505b6020821081141561211e577f4e487b7100000000000000000000000000000000000000000000000000000000600052602260045260246000fd5b50919050565b7f4e487b7100000000000000000000000000000000000000000000000000000000600052601160045260246000fd5b7f4e487b7100000000000000000000000000000000000000000000000000000000600052604160045260246000fdfea2646970667358221220aec8b51d10ecd6cab6bb96bc93b680e5ba6a16848f7f33a2f8c1729084d00b6864736f6c63430008070033",
  "linkReferences": {},
  "deployedLinkReferences": {}
}